{
  "contractName": "discountsAndPromotions",
  "abi": [
    {
      "inputs": [
        {
          "internalType": "string",
          "name": "",
          "type": "string"
        }
      ],
      "name": "PromotionsandDiscounts",
      "outputs": [
        {
          "internalType": "string",
          "name": "name",
          "type": "string"
        },
        {
          "internalType": "uint256",
          "name": "types",
          "type": "uint256"
        },
        {
          "internalType": "uint256",
          "name": "quantity",
          "type": "uint256"
        },
        {
          "internalType": "uint256",
          "name": "pricepercentagededuction",
          "type": "uint256"
        },
        {
          "internalType": "uint256",
          "name": "duration",
          "type": "uint256"
        }
      ],
      "stateMutability": "view",
      "type": "function",
      "constant": true
    },
    {
      "inputs": [],
      "name": "mn",
      "outputs": [
        {
          "internalType": "contract menuManagement",
          "name": "",
          "type": "address"
        }
      ],
      "stateMutability": "view",
      "type": "function",
      "constant": true
    },
    {
      "inputs": [
        {
          "internalType": "address",
          "name": "_addrmenu",
          "type": "address"
        }
      ],
      "name": "setMenu",
      "outputs": [],
      "stateMutability": "nonpayable",
      "type": "function"
    },
    {
      "inputs": [
        {
          "internalType": "string[]",
          "name": "items",
          "type": "string[]"
        },
        {
          "internalType": "uint256",
          "name": "quantity",
          "type": "uint256"
        },
        {
          "internalType": "uint256",
          "name": "_duration",
          "type": "uint256"
        }
      ],
      "name": "AddBuyAndGetFreePromotion",
      "outputs": [],
      "stateMutability": "nonpayable",
      "type": "function"
    },
    {
      "inputs": [
        {
          "internalType": "string[]",
          "name": "items",
          "type": "string[]"
        },
        {
          "internalType": "uint256",
          "name": "percentage",
          "type": "uint256"
        },
        {
          "internalType": "uint256",
          "name": "_duration",
          "type": "uint256"
        }
      ],
      "name": "AddSimpleDiscount",
      "outputs": [],
      "stateMutability": "nonpayable",
      "type": "function"
    }
  ],
  "bytecode": "0x608060405234801561001057600080fd5b50611a83806100206000396000f3fe608060405234801561001057600080fd5b50600436106100575760003560e01c80637d0a5bed1461005c5780639a3a8d1014610078578063d271960c146100ac578063fa30dbd9146100c8578063ffc841bd146100e4575b600080fd5b61007660048036038101906100719190610c69565b610102565b005b610092600480360381019061008d9190610ddc565b610145565b6040516100a3959493929190610ebd565b60405180910390f35b6100c660048036038101906100c19190611029565b610219565b005b6100e260048036038101906100dd9190611029565b61065d565b005b6100ec610aac565b6040516100f991906110f7565b60405180910390f35b806000806101000a81548173ffffffffffffffffffffffffffffffffffffffff021916908373ffffffffffffffffffffffffffffffffffffffff16021790555050565b60048180516020810182018051848252602083016020850120818352809550505050505060009150905080600001805461017e90611141565b80601f01602080910402602001604051908101604052809291908181526020018280546101aa90611141565b80156101f75780601f106101cc576101008083540402835291602001916101f7565b820191906000526020600020905b8154815290600101906020018083116101da57829003601f168201915b5050505050908060010154908060020154908060030154908060040154905085565b605a82111561025d576040517f08c379a0000000000000000000000000000000000000000000000000000000008152600401610254906111be565b60405180910390fd5b60008054906101000a900473ffffffffffffffffffffffffffffffffffffffff1673ffffffffffffffffffffffffffffffffffffffff166313bc85106040518163ffffffff1660e01b8152600401600060405180830381865afa1580156102c8573d6000803e3d6000fd5b505050506040513d6000823e3d601f19601f820116820180604052508101906102f19190611303565b60019080519060200190610306929190610ad0565b5060008054906101000a900473ffffffffffffffffffffffffffffffffffffffff1673ffffffffffffffffffffffffffffffffffffffff1663fb5e33b76040518163ffffffff1660e01b8152600401600060405180830381865afa158015610372573d6000803e3d6000fd5b505050506040513d6000823e3d601f19601f8201168201806040525081019061039b9190611424565b600290805190602001906103b0929190610b29565b5060008054906101000a900473ffffffffffffffffffffffffffffffffffffffff1673ffffffffffffffffffffffffffffffffffffffff1663b37809716040518163ffffffff1660e01b8152600401600060405180830381865afa15801561041c573d6000803e3d6000fd5b505050506040513d6000823e3d601f19601f820116820180604052508101906104459190611424565b6003908051906020019061045a929190610b29565b506000805b6001805490508110156106565784828151811061047f5761047e61146d565b5b602002602001015160405160200161049791906114d8565b60405160208183030381529060405280519060200120600182815481106104c1576104c061146d565b5b906000526020600020016040516020016104db9190611587565b6040516020818303038152906040528051906020012003610643576001818154811061050a5761050961146d565b5b9060005260206000200160046001838154811061052a5761052961146d565b5b906000526020600020016040516105419190611587565b9081526020016040518091039020600001908161055e9190611756565b5060026004600183815481106105775761057661146d565b5b9060005260206000200160405161058e9190611587565b908152602001604051809103902060010181905550836004600183815481106105ba576105b961146d565b5b906000526020600020016040516105d19190611587565b90815260200160405180910390206003018190555082426105f2919061186d565b6004600183815481106106085761060761146d565b5b9060005260206000200160405161061f9190611587565b908152602001604051809103902060040181905550818061063f906118a1565b9250505b808061064e906118a1565b91505061045f565b5050505050565b60008211801561066d5750600081115b6106ac576040517f08c379a00000000000000000000000000000000000000000000000000000000081526004016106a39061195b565b60405180910390fd5b60008054906101000a900473ffffffffffffffffffffffffffffffffffffffff1673ffffffffffffffffffffffffffffffffffffffff166313bc85106040518163ffffffff1660e01b8152600401600060405180830381865afa158015610717573d6000803e3d6000fd5b505050506040513d6000823e3d601f19601f820116820180604052508101906107409190611303565b60019080519060200190610755929190610ad0565b5060008054906101000a900473ffffffffffffffffffffffffffffffffffffffff1673ffffffffffffffffffffffffffffffffffffffff1663fb5e33b76040518163ffffffff1660e01b8152600401600060405180830381865afa1580156107c1573d6000803e3d6000fd5b505050506040513d6000823e3d601f19601f820116820180604052508101906107ea9190611424565b600290805190602001906107ff929190610b29565b5060008054906101000a900473ffffffffffffffffffffffffffffffffffffffff1673ffffffffffffffffffffffffffffffffffffffff1663b37809716040518163ffffffff1660e01b8152600401600060405180830381865afa15801561086b573d6000803e3d6000fd5b505050506040513d6000823e3d601f19601f820116820180604052508101906108949190611424565b600390805190602001906108a9929190610b29565b506000805b600180549050811015610aa5578482815181106108ce576108cd61146d565b5b60200260200101516040516020016108e691906114d8565b60405160208183030381529060405280519060200120600182815481106109105761090f61146d565b5b9060005260206000200160405160200161092a9190611587565b6040516020818303038152906040528051906020012003610a92578360046001838154811061095c5761095b61146d565b5b906000526020600020016040516109739190611587565b9081526020016040518091039020600201819055506001818154811061099c5761099b61146d565b5b906000526020600020016004600183815481106109bc576109bb61146d565b5b906000526020600020016040516109d39190611587565b908152602001604051809103902060000190816109f09190611756565b506001600460018381548110610a0957610a0861146d565b5b90600052602060002001604051610a209190611587565b9081526020016040518091039020600101819055508242610a41919061186d565b600460018381548110610a5757610a5661146d565b5b90600052602060002001604051610a6e9190611587565b9081526020016040518091039020600401819055508180610a8e906118a1565b9250505b8080610a9d906118a1565b9150506108ae565b5050505050565b60008054906101000a900473ffffffffffffffffffffffffffffffffffffffff1681565b828054828255906000526020600020908101928215610b18579160200282015b82811115610b17578251829081610b07919061197b565b5091602001919060010190610af0565b5b509050610b259190610b76565b5090565b828054828255906000526020600020908101928215610b65579160200282015b82811115610b64578251825591602001919060010190610b49565b5b509050610b729190610b9a565b5090565b5b80821115610b965760008181610b8d9190610bb7565b50600101610b77565b5090565b5b80821115610bb3576000816000905550600101610b9b565b5090565b508054610bc390611141565b6000825580601f10610bd55750610bf4565b601f016020900490600052602060002090810190610bf39190610b9a565b5b50565b6000604051905090565b600080fd5b600080fd5b600073ffffffffffffffffffffffffffffffffffffffff82169050919050565b6000610c3682610c0b565b9050919050565b610c4681610c2b565b8114610c5157600080fd5b50565b600081359050610c6381610c3d565b92915050565b600060208284031215610c7f57610c7e610c01565b5b6000610c8d84828501610c54565b91505092915050565b600080fd5b600080fd5b6000601f19601f8301169050919050565b7f4e487b7100000000000000000000000000000000000000000000000000000000600052604160045260246000fd5b610ce982610ca0565b810181811067ffffffffffffffff82111715610d0857610d07610cb1565b5b80604052505050565b6000610d1b610bf7565b9050610d278282610ce0565b919050565b600067ffffffffffffffff821115610d4757610d46610cb1565b5b610d5082610ca0565b9050602081019050919050565b82818337600083830152505050565b6000610d7f610d7a84610d2c565b610d11565b905082815260208101848484011115610d9b57610d9a610c9b565b5b610da6848285610d5d565b509392505050565b600082601f830112610dc357610dc2610c96565b5b8135610dd3848260208601610d6c565b91505092915050565b600060208284031215610df257610df1610c01565b5b600082013567ffffffffffffffff811115610e1057610e0f610c06565b5b610e1c84828501610dae565b91505092915050565b600081519050919050565b600082825260208201905092915050565b60005b83811015610e5f578082015181840152602081019050610e44565b60008484015250505050565b6000610e7682610e25565b610e808185610e30565b9350610e90818560208601610e41565b610e9981610ca0565b840191505092915050565b6000819050919050565b610eb781610ea4565b82525050565b600060a0820190508181036000830152610ed78188610e6b565b9050610ee66020830187610eae565b610ef36040830186610eae565b610f006060830185610eae565b610f0d6080830184610eae565b9695505050505050565b600067ffffffffffffffff821115610f3257610f31610cb1565b5b602082029050602081019050919050565b600080fd5b6000610f5b610f5684610f17565b610d11565b90508083825260208201905060208402830185811115610f7e57610f7d610f43565b5b835b81811015610fc557803567ffffffffffffffff811115610fa357610fa2610c96565b5b808601610fb08982610dae565b85526020850194505050602081019050610f80565b5050509392505050565b600082601f830112610fe457610fe3610c96565b5b8135610ff4848260208601610f48565b91505092915050565b61100681610ea4565b811461101157600080fd5b50565b60008135905061102381610ffd565b92915050565b60008060006060848603121561104257611041610c01565b5b600084013567ffffffffffffffff8111156110605761105f610c06565b5b61106c86828701610fcf565b935050602061107d86828701611014565b925050604061108e86828701611014565b9150509250925092565b6000819050919050565b60006110bd6110b86110b384610c0b565b611098565b610c0b565b9050919050565b60006110cf826110a2565b9050919050565b60006110e1826110c4565b9050919050565b6110f1816110d6565b82525050565b600060208201905061110c60008301846110e8565b92915050565b7f4e487b7100000000000000000000000000000000000000000000000000000000600052602260045260246000fd5b6000600282049050600182168061115957607f821691505b60208210810361116c5761116b611112565b5b50919050565b7f50657263656e746167652063616e6e6f74206578636565656420393000000000600082015250565b60006111a8601c83610e30565b91506111b382611172565b602082019050919050565b600060208201905081810360008301526111d78161119b565b9050919050565b60006111f16111ec84610d2c565b610d11565b90508281526020810184848401111561120d5761120c610c9b565b5b611218848285610e41565b509392505050565b600082601f83011261123557611234610c96565b5b81516112458482602086016111de565b91505092915050565b600061126161125c84610f17565b610d11565b9050808382526020820190506020840283018581111561128457611283610f43565b5b835b818110156112cb57805167ffffffffffffffff8111156112a9576112a8610c96565b5b8086016112b68982611220565b85526020850194505050602081019050611286565b5050509392505050565b600082601f8301126112ea576112e9610c96565b5b81516112fa84826020860161124e565b91505092915050565b60006020828403121561131957611318610c01565b5b600082015167ffffffffffffffff81111561133757611336610c06565b5b611343848285016112d5565b91505092915050565b600067ffffffffffffffff82111561136757611366610cb1565b5b602082029050602081019050919050565b60008151905061138781610ffd565b92915050565b60006113a061139b8461134c565b610d11565b905080838252602082019050602084028301858111156113c3576113c2610f43565b5b835b818110156113ec57806113d88882611378565b8452602084019350506020810190506113c5565b5050509392505050565b600082601f83011261140b5761140a610c96565b5b815161141b84826020860161138d565b91505092915050565b60006020828403121561143a57611439610c01565b5b600082015167ffffffffffffffff81111561145857611457610c06565b5b611464848285016113f6565b91505092915050565b7f4e487b7100000000000000000000000000000000000000000000000000000000600052603260045260246000fd5b600081905092915050565b60006114b282610e25565b6114bc818561149c565b93506114cc818560208601610e41565b80840191505092915050565b60006114e482846114a7565b915081905092915050565b60008190508160005260206000209050919050565b6000815461151181611141565b61151b818661149c565b94506001821660008114611536576001811461154b5761157e565b60ff198316865281151582028601935061157e565b611554856114ef565b60005b8381101561157657815481890152600182019150602081019050611557565b838801955050505b50505092915050565b60006115938284611504565b915081905092915050565b6000815490506115ad81611141565b9050919050565b60008190508160005260206000209050919050565b60006020601f8301049050919050565b600082821b905092915050565b6000600883026116167fffffffffffffffffffffffffffffffffffffffffffffffffffffffffffffffff826115d9565b61162086836115d9565b95508019841693508086168417925050509392505050565b600061165361164e61164984610ea4565b611098565b610ea4565b9050919050565b6000819050919050565b61166d83611638565b6116816116798261165a565b8484546115e6565b825550505050565b600090565b611696611689565b6116a1818484611664565b505050565b5b818110156116c5576116ba60008261168e565b6001810190506116a7565b5050565b601f82111561170a576116db816114ef565b6116e4846115c9565b810160208510156116f3578190505b6117076116ff856115c9565b8301826116a6565b50505b505050565b600082821c905092915050565b600061172d6000198460080261170f565b1980831691505092915050565b6000611746838361171c565b9150826002028217905092915050565b81810361176457505061183c565b61176d8261159e565b67ffffffffffffffff81111561178657611785610cb1565b5b6117908254611141565b61179b8282856116c9565b6000601f8311600181146117ca57600084156117b8578287015490505b6117c2858261173a565b865550611835565b601f1984166117d8876115b4565b96506117e3866114ef565b60005b8281101561180b578489015482556001820191506001850194506020810190506117e6565b868310156118285784890154611824601f89168261171c565b8355505b6001600288020188555050505b5050505050505b565b7f4e487b7100000000000000000000000000000000000000000000000000000000600052601160045260246000fd5b600061187882610ea4565b915061188383610ea4565b925082820190508082111561189b5761189a61183e565b5b92915050565b60006118ac82610ea4565b91507fffffffffffffffffffffffffffffffffffffffffffffffffffffffffffffffff82036118de576118dd61183e565b5b600182019050919050565b7f5175616e74697479206f72206475726174696f6e2063616e6e6f74206265207a60008201527f65726f2e00000000000000000000000000000000000000000000000000000000602082015250565b6000611945602483610e30565b9150611950826118e9565b604082019050919050565b6000602082019050818103600083015261197481611938565b9050919050565b61198482610e25565b67ffffffffffffffff81111561199d5761199c610cb1565b5b6119a78254611141565b6119b28282856116c9565b600060209050601f8311600181146119e557600084156119d3578287015190505b6119dd858261173a565b865550611a45565b601f1984166119f3866114ef565b60005b82811015611a1b578489015182556001820191506020850194506020810190506119f6565b86831015611a385784890151611a34601f89168261171c565b8355505b6001600288020188555050505b50505050505056fea264697066735822122036994e27e30bdc821861bb9c7fc9b20ef2a004cf22a8ddf577c4cb9de9eaaada64736f6c63430008130033",
  "immutableReferences": {},
  "source": "//SPDX-License-Identifier:MIT\r\npragma solidity >=0.8.10 <0.8.20;\r\nimport \"./menuManagement.sol\";\r\ncontract discountsAndPromotions {\r\n    menuManagement public mn;\r\n    string [] names ;\r\n    uint [] prices;\r\n    uint [] quantities;\r\n    function setMenu(address _addrmenu) public{\r\n        mn=menuManagement(_addrmenu);\r\n    }\r\n    struct PromAndDisc {\r\n        string name;\r\n        uint types;\r\n        uint quantity;\r\n        uint pricepercentagededuction;\r\n        uint duration;\r\n    }\r\n    mapping(string=> PromAndDisc) public PromotionsandDiscounts;\r\n\r\n    //The Quantity here is the quantity \r\n    //after which the customer will be eligible for free meal.\r\n    function AddBuyAndGetFreePromotion (string [] memory items , uint quantity , uint _duration) public {\r\n        require(quantity > 0 && _duration > 0 , \"Quantity or duration cannot be zero.\");\r\n        names = mn.getItemNames();\r\n        prices = mn.getMenuPrice() ;\r\n        quantities = mn.getMenuQuantity();//OPC.getMenuItems();//Tuples in solidity\r\n        uint j = 0;\r\n        for (uint i = 0 ; i < names.length ; i++){\r\n            if (keccak256(abi.encodePacked(names[i])) == keccak256(abi.encodePacked(items[j]))){\r\n                PromotionsandDiscounts[names[i]].quantity=quantity;\r\n                PromotionsandDiscounts[names[i]].name=names[i];\r\n                PromotionsandDiscounts[names[i]].types=1;\r\n                PromotionsandDiscounts[names[i]].duration= block.timestamp + _duration;\r\n                j++;\r\n            }\r\n        }\r\n    }\r\n\r\n    function AddSimpleDiscount(string [] memory items , uint percentage , uint _duration) public {\r\n        require(percentage <= 90 , \"Percentage cannot exceeed 90\");\r\n        names = mn.getItemNames();\r\n        prices = mn.getMenuPrice() ;\r\n        quantities = mn.getMenuQuantity();//OPC.getMenuItems();//Tuples in solidity\r\n        uint j = 0;\r\n        for (uint i = 0 ; i < names.length ; i++){\r\n            if (keccak256(abi.encodePacked(names[i])) == keccak256(abi.encodePacked(items[j]))){\r\n                PromotionsandDiscounts[names[i]].name=names[i];\r\n                PromotionsandDiscounts[names[i]].types=2;\r\n                PromotionsandDiscounts[names[i]].pricepercentagededuction=percentage;\r\n                PromotionsandDiscounts[names[i]].duration= block.timestamp + _duration;\r\n                j++;\r\n            }\r\n        }\r\n    }\r\n}",
  "sourcePath": "/home/awais/Downloads/Project2/contracts/discountsAndPromotions.sol",
  "compiler": {
    "name": "solc",
    "version": "0.8.19+commit.7dd6d404.Emscripten.clang"
  },
  "schemaVersion": "3.4.16",
  "updatedAt": "2024-01-06T10:48:27.795Z",
  "networkType": "ethereum",
  "devdoc": {
    "kind": "dev",
    "methods": {},
    "version": 1
  },
  "userdoc": {
    "kind": "user",
    "methods": {},
    "version": 1
  }
}