{
  "contractName": "FASTCOIN",
  "abi": [
    {
      "inputs": [
        {
          "internalType": "uint256",
          "name": "_numTokens",
          "type": "uint256"
        }
      ],
      "stateMutability": "nonpayable",
      "type": "constructor"
    },
    {
      "anonymous": false,
      "inputs": [
        {
          "indexed": false,
          "internalType": "address",
          "name": "owner",
          "type": "address"
        },
        {
          "indexed": false,
          "internalType": "address",
          "name": "spender",
          "type": "address"
        },
        {
          "indexed": false,
          "internalType": "uint256",
          "name": "value",
          "type": "uint256"
        }
      ],
      "name": "Approval",
      "type": "event"
    },
    {
      "anonymous": false,
      "inputs": [
        {
          "indexed": false,
          "internalType": "address",
          "name": "from",
          "type": "address"
        },
        {
          "indexed": false,
          "internalType": "address",
          "name": "to",
          "type": "address"
        },
        {
          "indexed": false,
          "internalType": "uint256",
          "name": "value",
          "type": "uint256"
        }
      ],
      "name": "Transfer",
      "type": "event"
    },
    {
      "inputs": [],
      "name": "RAL",
      "outputs": [
        {
          "internalType": "contract rewardsAndLoyalty",
          "name": "",
          "type": "address"
        }
      ],
      "stateMutability": "view",
      "type": "function",
      "constant": true
    },
    {
      "inputs": [],
      "name": "totalSupply",
      "outputs": [
        {
          "internalType": "uint256",
          "name": "",
          "type": "uint256"
        }
      ],
      "stateMutability": "view",
      "type": "function",
      "constant": true
    },
    {
      "inputs": [
        {
          "internalType": "address",
          "name": "account",
          "type": "address"
        }
      ],
      "name": "balanceOf",
      "outputs": [
        {
          "internalType": "uint256",
          "name": "",
          "type": "uint256"
        }
      ],
      "stateMutability": "view",
      "type": "function",
      "constant": true
    },
    {
      "inputs": [
        {
          "internalType": "address",
          "name": "recipient",
          "type": "address"
        },
        {
          "internalType": "uint256",
          "name": "amount",
          "type": "uint256"
        }
      ],
      "name": "transfer",
      "outputs": [
        {
          "internalType": "bool",
          "name": "",
          "type": "bool"
        }
      ],
      "stateMutability": "nonpayable",
      "type": "function"
    },
    {
      "inputs": [
        {
          "internalType": "address",
          "name": "spender",
          "type": "address"
        },
        {
          "internalType": "uint256",
          "name": "value",
          "type": "uint256"
        }
      ],
      "name": "approve",
      "outputs": [
        {
          "internalType": "bool",
          "name": "",
          "type": "bool"
        }
      ],
      "stateMutability": "nonpayable",
      "type": "function"
    },
    {
      "inputs": [
        {
          "internalType": "address",
          "name": "owner",
          "type": "address"
        },
        {
          "internalType": "address",
          "name": "spender",
          "type": "address"
        }
      ],
      "name": "allowance",
      "outputs": [
        {
          "internalType": "uint256",
          "name": "",
          "type": "uint256"
        }
      ],
      "stateMutability": "view",
      "type": "function",
      "constant": true
    },
    {
      "inputs": [
        {
          "internalType": "address",
          "name": "sender",
          "type": "address"
        },
        {
          "internalType": "address",
          "name": "recipient",
          "type": "address"
        },
        {
          "internalType": "uint256",
          "name": "amount",
          "type": "uint256"
        }
      ],
      "name": "transferFrom",
      "outputs": [
        {
          "internalType": "bool",
          "name": "",
          "type": "bool"
        }
      ],
      "stateMutability": "nonpayable",
      "type": "function"
    }
  ],
  "bytecode": "0x60806040523480156200001157600080fd5b5060405162001300380380620013008339818101604052810190620000379190620000cb565b80600081905550600054600160003373ffffffffffffffffffffffffffffffffffffffff1673ffffffffffffffffffffffffffffffffffffffff1681526020019081526020016000208190555050620000fd565b600080fd5b6000819050919050565b620000a58162000090565b8114620000b157600080fd5b50565b600081519050620000c5816200009a565b92915050565b600060208284031215620000e457620000e36200008b565b5b6000620000f484828501620000b4565b91505092915050565b6111f3806200010d6000396000f3fe608060405234801561001057600080fd5b506004361061007d5760003560e01c806323b872dd1161005b57806323b872dd146100ee57806370a082311461011e578063a9059cbb1461014e578063dd62ed3e1461017e5761007d565b8063095ea7b3146100825780630e96c3d8146100b257806318160ddd146100d0575b600080fd5b61009c60048036038101906100979190610d1e565b6101ae565b6040516100a99190610d79565b60405180910390f35b6100ba610283565b6040516100c79190610df3565b60405180910390f35b6100d86102a9565b6040516100e59190610e1d565b60405180910390f35b61010860048036038101906101039190610e38565b6102b2565b6040516101159190610d79565b60405180910390f35b61013860048036038101906101339190610e8b565b610aa6565b6040516101459190610e1d565b60405180910390f35b61016860048036038101906101639190610d1e565b610aef565b6040516101759190610d79565b60405180910390f35b61019860048036038101906101939190610eb8565b610bef565b6040516101a59190610e1d565b60405180910390f35b600081600160003373ffffffffffffffffffffffffffffffffffffffff1673ffffffffffffffffffffffffffffffffffffffff1681526020019081526020016000205410156101fc57600080fd5b81600360003373ffffffffffffffffffffffffffffffffffffffff1673ffffffffffffffffffffffffffffffffffffffff16815260200190815260200160002060008573ffffffffffffffffffffffffffffffffffffffff1673ffffffffffffffffffffffffffffffffffffffff1681526020019081526020016000208190555092915050565b600560009054906101000a900473ffffffffffffffffffffffffffffffffffffffff1681565b60008054905090565b6000600160008573ffffffffffffffffffffffffffffffffffffffff1673ffffffffffffffffffffffffffffffffffffffff1681526020019081526020016000205482111561030057600080fd5b600360008573ffffffffffffffffffffffffffffffffffffffff1673ffffffffffffffffffffffffffffffffffffffff16815260200190815260200160002060003373ffffffffffffffffffffffffffffffffffffffff1673ffffffffffffffffffffffffffffffffffffffff1681526020019081526020016000205482111561038957600080fd5b600260008573ffffffffffffffffffffffffffffffffffffffff1673ffffffffffffffffffffffffffffffffffffffff16815260200190815260200160002054426103d49190610f27565b600260008673ffffffffffffffffffffffffffffffffffffffff1673ffffffffffffffffffffffffffffffffffffffff1681526020019081526020016000208190555062015180600260008673ffffffffffffffffffffffffffffffffffffffff1673ffffffffffffffffffffffffffffffffffffffff1681526020019081526020016000205411156104ab576000600460008673ffffffffffffffffffffffffffffffffffffffff1673ffffffffffffffffffffffffffffffffffffffff168152602001908152602001600020819055506108c5565b6000600560009054906101000a900473ffffffffffffffffffffffffffffffffffffffff1673ffffffffffffffffffffffffffffffffffffffff16633f1df44b6040518163ffffffff1660e01b8152600401600060405180830381865afa15801561051a573d6000803e3d6000fd5b505050506040513d6000823e3d601f19601f8201168201806040525081019061054391906110c9565b90506000600560009054906101000a900473ffffffffffffffffffffffffffffffffffffffff1673ffffffffffffffffffffffffffffffffffffffff16636f8e0a086040518163ffffffff1660e01b8152600401600060405180830381865afa1580156105b4573d6000803e3d6000fd5b505050506040513d6000823e3d601f19601f820116820180604052508101906105dd91906110c9565b90506000600560009054906101000a900473ffffffffffffffffffffffffffffffffffffffff1673ffffffffffffffffffffffffffffffffffffffff1663af04289c6040518163ffffffff1660e01b8152600401600060405180830381865afa15801561064e573d6000803e3d6000fd5b505050506040513d6000823e3d601f19601f8201168201806040525081019061067791906110c9565b90506000600560009054906101000a900473ffffffffffffffffffffffffffffffffffffffff1673ffffffffffffffffffffffffffffffffffffffff1663703848246040518163ffffffff1660e01b8152600401600060405180830381865afa1580156106e8573d6000803e3d6000fd5b505050506040513d6000823e3d601f19601f8201168201806040525081019061071191906110c9565b905060005b84518110156107c95784818151811061073257610731611112565b5b60200260200101518711156107b65783818151811061075457610753611112565b5b6020026020010151600160008b73ffffffffffffffffffffffffffffffffffffffff1673ffffffffffffffffffffffffffffffffffffffff16815260200190815260200160002060008282546107aa9190611141565b925050819055506107c9565b80806107c190611175565b915050610716565b5060005b82518110156108bf578281815181106107e9576107e8611112565b5b6020026020010151600460008b73ffffffffffffffffffffffffffffffffffffffff1673ffffffffffffffffffffffffffffffffffffffff1681526020019081526020016000205411156108ac5781818151811061084a57610849611112565b5b6020026020010151600160008b73ffffffffffffffffffffffffffffffffffffffff1673ffffffffffffffffffffffffffffffffffffffff16815260200190815260200160002060008282546108a09190611141565b925050819055506108bf565b80806108b790611175565b9150506107cd565b50505050505b81600160008673ffffffffffffffffffffffffffffffffffffffff1673ffffffffffffffffffffffffffffffffffffffff16815260200190815260200160002060008282546109149190610f27565b9250508190555081600160008573ffffffffffffffffffffffffffffffffffffffff1673ffffffffffffffffffffffffffffffffffffffff168152602001908152602001600020600082825461096a9190611141565b9250508190555081600360008673ffffffffffffffffffffffffffffffffffffffff1673ffffffffffffffffffffffffffffffffffffffff16815260200190815260200160002060003373ffffffffffffffffffffffffffffffffffffffff1673ffffffffffffffffffffffffffffffffffffffff16815260200190815260200160002060008282546109fd9190610f27565b9250508190555042600260008673ffffffffffffffffffffffffffffffffffffffff1673ffffffffffffffffffffffffffffffffffffffff168152602001908152602001600020819055506001600460008673ffffffffffffffffffffffffffffffffffffffff1673ffffffffffffffffffffffffffffffffffffffff1681526020019081526020016000206000828254610a989190611141565b925050819055509392505050565b6000600160008373ffffffffffffffffffffffffffffffffffffffff1673ffffffffffffffffffffffffffffffffffffffff168152602001908152602001600020549050919050565b600081600160003373ffffffffffffffffffffffffffffffffffffffff1673ffffffffffffffffffffffffffffffffffffffff168152602001908152602001600020541015610b3d57600080fd5b81600160003373ffffffffffffffffffffffffffffffffffffffff1673ffffffffffffffffffffffffffffffffffffffff1681526020019081526020016000206000828254610b8c9190610f27565b9250508190555081600160008573ffffffffffffffffffffffffffffffffffffffff1673ffffffffffffffffffffffffffffffffffffffff1681526020019081526020016000206000828254610be29190611141565b9250508190555092915050565b6000600360008473ffffffffffffffffffffffffffffffffffffffff1673ffffffffffffffffffffffffffffffffffffffff16815260200190815260200160002060008373ffffffffffffffffffffffffffffffffffffffff1673ffffffffffffffffffffffffffffffffffffffff16815260200190815260200160002054905092915050565b6000604051905090565b600080fd5b600080fd5b600073ffffffffffffffffffffffffffffffffffffffff82169050919050565b6000610cb582610c8a565b9050919050565b610cc581610caa565b8114610cd057600080fd5b50565b600081359050610ce281610cbc565b92915050565b6000819050919050565b610cfb81610ce8565b8114610d0657600080fd5b50565b600081359050610d1881610cf2565b92915050565b60008060408385031215610d3557610d34610c80565b5b6000610d4385828601610cd3565b9250506020610d5485828601610d09565b9150509250929050565b60008115159050919050565b610d7381610d5e565b82525050565b6000602082019050610d8e6000830184610d6a565b92915050565b6000819050919050565b6000610db9610db4610daf84610c8a565b610d94565b610c8a565b9050919050565b6000610dcb82610d9e565b9050919050565b6000610ddd82610dc0565b9050919050565b610ded81610dd2565b82525050565b6000602082019050610e086000830184610de4565b92915050565b610e1781610ce8565b82525050565b6000602082019050610e326000830184610e0e565b92915050565b600080600060608486031215610e5157610e50610c80565b5b6000610e5f86828701610cd3565b9350506020610e7086828701610cd3565b9250506040610e8186828701610d09565b9150509250925092565b600060208284031215610ea157610ea0610c80565b5b6000610eaf84828501610cd3565b91505092915050565b60008060408385031215610ecf57610ece610c80565b5b6000610edd85828601610cd3565b9250506020610eee85828601610cd3565b9150509250929050565b7f4e487b7100000000000000000000000000000000000000000000000000000000600052601160045260246000fd5b6000610f3282610ce8565b9150610f3d83610ce8565b9250828203905081811115610f5557610f54610ef8565b5b92915050565b600080fd5b6000601f19601f8301169050919050565b7f4e487b7100000000000000000000000000000000000000000000000000000000600052604160045260246000fd5b610fa982610f60565b810181811067ffffffffffffffff82111715610fc857610fc7610f71565b5b80604052505050565b6000610fdb610c76565b9050610fe78282610fa0565b919050565b600067ffffffffffffffff82111561100757611006610f71565b5b602082029050602081019050919050565b600080fd5b60008151905061102c81610cf2565b92915050565b600061104561104084610fec565b610fd1565b9050808382526020820190506020840283018581111561106857611067611018565b5b835b81811015611091578061107d888261101d565b84526020840193505060208101905061106a565b5050509392505050565b600082601f8301126110b0576110af610f5b565b5b81516110c0848260208601611032565b91505092915050565b6000602082840312156110df576110de610c80565b5b600082015167ffffffffffffffff8111156110fd576110fc610c85565b5b6111098482850161109b565b91505092915050565b7f4e487b7100000000000000000000000000000000000000000000000000000000600052603260045260246000fd5b600061114c82610ce8565b915061115783610ce8565b925082820190508082111561116f5761116e610ef8565b5b92915050565b600061118082610ce8565b91507fffffffffffffffffffffffffffffffffffffffffffffffffffffffffffffffff82036111b2576111b1610ef8565b5b60018201905091905056fea26469706673582212208b23e69139345485342c08e4d411e9fea0ddd22a98269957c3de4d9005c2adc164736f6c63430008130033",
  "immutableReferences": {},
  "source": "//SPDX-License-Identifier:MIT\r\npragma solidity >=0.8.10 <0.8.20;\r\nimport \"./rewardsAndLoyalty.sol\";\r\ninterface ERC20 {\r\n    function totalSupply() external view returns (uint256);\r\n    function balanceOf(address account) external view returns (uint256);\r\n    function transfer(address recipient, uint256 amount) external returns (bool);\r\n    function allowance(address owner, address spender) external view returns (uint256);\r\n    function approve(address spender, uint256 value) external returns (bool);\r\n    function transferFrom(address sender, address recipient, uint256 amount) external returns (bool);\r\n    event Transfer(address from, address to, uint256 value);\r\n    event Approval(address owner, address spender, uint256 value);\r\n}\r\n\r\ncontract FASTCOIN is ERC20 {\r\n    uint numTokens;\r\n    mapping(address=>uint) balance;\r\n    mapping(address=>uint) paymenttime;\r\n    mapping(address=> mapping(address=>uint)) approvalLimit;\r\n    mapping(address=>uint)daystreak;\r\n    rewardsAndLoyalty public RAL;\r\n    constructor (uint _numTokens) {\r\n        numTokens = _numTokens;\r\n        balance[msg.sender] = numTokens;\r\n    }\r\n\r\n\r\n    function totalSupply() external view returns (uint256){\r\n        return numTokens;\r\n    }\r\n\r\n    function balanceOf(address account) external view returns (uint256){\r\n        return balance[account];\r\n    }\r\n\r\n    function transfer(address recipient, uint256 amount) external returns (bool){\r\n        require (balance[msg.sender] >= amount) ;\r\n        balance[msg.sender] -= amount;\r\n        balance[recipient] += amount;\r\n    }\r\n\r\n    function approve(address spender, uint256 value) external returns (bool){\r\n        require (balance[msg.sender] >= value);\r\n        approvalLimit[msg.sender][spender] = value;\r\n    }\r\n\r\n    function allowance(address owner, address spender) external view returns\r\n    (uint256){\r\n        return approvalLimit[owner][spender];\r\n    }\r\n\r\n    function transferFrom(address sender, address recipient, uint256 amount) external returns\r\n    (bool){\r\n        require (amount <= balance[sender]);\r\n        require (amount <= approvalLimit[sender][msg.sender]);\r\n        paymenttime[sender]=(block.timestamp - paymenttime[sender]) ;\r\n        if (paymenttime[sender] > 24 hours){\r\n            daystreak[sender]=0;\r\n        } else {\r\n            uint [] memory stamt = RAL.getsentamount();\r\n            uint [] memory rwd = RAL.getreward();\r\n            uint [] memory bdystk = RAL.getbuydaysstreak();\r\n            uint [] memory rwdbdystk = RAL.getrewardforbuydays();\r\n            for (uint i = 0 ; i < stamt.length ; i++){\r\n                if (amount > stamt[i]){\r\n                    balance[sender]+=rwd[i];\r\n                    break;\r\n                }\r\n            }\r\n\r\n            for (uint i = 0 ; i < bdystk.length ; i++){\r\n                if (daystreak[sender] > bdystk[i]){\r\n                    balance[sender]+=rwdbdystk[i];\r\n                    break;\r\n                }\r\n            }\r\n        }\r\n        balance[sender] -= amount;\r\n        balance[recipient] += amount;\r\n        approvalLimit[sender][msg.sender] -= amount;\r\n        paymenttime[sender]=block.timestamp;\r\n        daystreak[sender]+=1;\r\n    }\r\n\r\n}",
  "sourcePath": "/home/awais/Downloads/Project2/contracts/FASTCOIN.sol",
  "compiler": {
    "name": "solc",
    "version": "0.8.19+commit.7dd6d404.Emscripten.clang"
  },
  "schemaVersion": "3.4.16",
  "updatedAt": "2024-01-06T10:48:27.548Z",
  "networkType": "ethereum",
  "devdoc": {
    "kind": "dev",
    "methods": {},
    "version": 1
  },
  "userdoc": {
    "kind": "user",
    "methods": {},
    "version": 1
  }
}