{
  "contractName": "menuManagement",
  "abi": [
    {
      "inputs": [],
      "stateMutability": "nonpayable",
      "type": "constructor"
    },
    {
      "inputs": [],
      "name": "admin",
      "outputs": [
        {
          "internalType": "address",
          "name": "",
          "type": "address"
        }
      ],
      "stateMutability": "view",
      "type": "function",
      "constant": true
    },
    {
      "inputs": [
        {
          "internalType": "string",
          "name": "",
          "type": "string"
        }
      ],
      "name": "itms",
      "outputs": [
        {
          "internalType": "string",
          "name": "name",
          "type": "string"
        },
        {
          "internalType": "uint256",
          "name": "price",
          "type": "uint256"
        },
        {
          "internalType": "uint256",
          "name": "quantity",
          "type": "uint256"
        },
        {
          "internalType": "bool",
          "name": "availability",
          "type": "bool"
        }
      ],
      "stateMutability": "view",
      "type": "function",
      "constant": true
    },
    {
      "inputs": [
        {
          "internalType": "uint256",
          "name": "",
          "type": "uint256"
        }
      ],
      "name": "names",
      "outputs": [
        {
          "internalType": "string",
          "name": "",
          "type": "string"
        }
      ],
      "stateMutability": "view",
      "type": "function",
      "constant": true
    },
    {
      "inputs": [
        {
          "internalType": "uint256",
          "name": "",
          "type": "uint256"
        }
      ],
      "name": "prices",
      "outputs": [
        {
          "internalType": "uint256",
          "name": "",
          "type": "uint256"
        }
      ],
      "stateMutability": "view",
      "type": "function",
      "constant": true
    },
    {
      "inputs": [
        {
          "internalType": "uint256",
          "name": "",
          "type": "uint256"
        }
      ],
      "name": "quantities",
      "outputs": [
        {
          "internalType": "uint256",
          "name": "",
          "type": "uint256"
        }
      ],
      "stateMutability": "view",
      "type": "function",
      "constant": true
    },
    {
      "inputs": [
        {
          "internalType": "string",
          "name": "name",
          "type": "string"
        },
        {
          "internalType": "uint256",
          "name": "price",
          "type": "uint256"
        },
        {
          "internalType": "uint256",
          "name": "qty",
          "type": "uint256"
        }
      ],
      "name": "addItem",
      "outputs": [],
      "stateMutability": "nonpayable",
      "type": "function"
    },
    {
      "inputs": [],
      "name": "getItemNames",
      "outputs": [
        {
          "internalType": "string[]",
          "name": "",
          "type": "string[]"
        }
      ],
      "stateMutability": "view",
      "type": "function",
      "constant": true
    },
    {
      "inputs": [
        {
          "internalType": "uint256",
          "name": "qty",
          "type": "uint256"
        },
        {
          "internalType": "uint256",
          "name": "i",
          "type": "uint256"
        }
      ],
      "name": "setQuantity",
      "outputs": [],
      "stateMutability": "nonpayable",
      "type": "function"
    },
    {
      "inputs": [
        {
          "internalType": "string",
          "name": "name",
          "type": "string"
        }
      ],
      "name": "CheckAvailability",
      "outputs": [
        {
          "internalType": "bool",
          "name": "",
          "type": "bool"
        }
      ],
      "stateMutability": "view",
      "type": "function",
      "constant": true
    },
    {
      "inputs": [],
      "name": "getMenuPrice",
      "outputs": [
        {
          "internalType": "uint256[]",
          "name": "",
          "type": "uint256[]"
        }
      ],
      "stateMutability": "view",
      "type": "function",
      "constant": true
    },
    {
      "inputs": [],
      "name": "getMenuQuantity",
      "outputs": [
        {
          "internalType": "uint256[]",
          "name": "",
          "type": "uint256[]"
        }
      ],
      "stateMutability": "view",
      "type": "function",
      "constant": true
    }
  ],
  "bytecode": "0x608060405234801561001057600080fd5b5033600460006101000a81548173ffffffffffffffffffffffffffffffffffffffff021916908373ffffffffffffffffffffffffffffffffffffffff160217905550611283806100616000396000f3fe608060405234801561001057600080fd5b50600436106100a95760003560e01c8063a412540311610071578063a41254031461017b578063b3780971146101ab578063bc31c1c1146101c9578063d5e6c333146101f9578063f851a44014610215578063fb5e33b714610233576100a9565b806313bc8510146100ae5780634622ab03146100cc578063825bbdac146100fc5780638aa0fc101461012c5780639405c78f1461015f575b600080fd5b6100b6610251565b6040516100c39190610967565b60405180910390f35b6100e660048036038101906100e191906109d3565b61032a565b6040516100f39190610a4a565b60405180910390f35b61011660048036038101906101119190610ba1565b6103d6565b6040516101239190610c05565b60405180910390f35b61014660048036038101906101419190610ba1565b61047b565b6040516101569493929190610c2f565b60405180910390f35b61017960048036038101906101749190610c7b565b610556565b005b610195600480360381019061019091906109d3565b61057d565b6040516101a29190610cbb565b60405180910390f35b6101b36105a1565b6040516101c09190610d94565b60405180910390f35b6101e360048036038101906101de91906109d3565b6105f9565b6040516101f09190610cbb565b60405180910390f35b610213600480360381019061020e9190610db6565b61061d565b005b61021d610797565b60405161022a9190610e66565b60405180910390f35b61023b6107bd565b6040516102489190610d94565b60405180910390f35b60606001805480602002602001604051908101604052809291908181526020016000905b8282101561032157838290600052602060002001805461029490610eb0565b80601f01602080910402602001604051908101604052809291908181526020018280546102c090610eb0565b801561030d5780601f106102e25761010080835404028352916020019161030d565b820191906000526020600020905b8154815290600101906020018083116102f057829003601f168201915b505050505081526020019060010190610275565b50505050905090565b6001818154811061033a57600080fd5b90600052602060002001600091509050805461035590610eb0565b80601f016020809104026020016040519081016040528092919081815260200182805461038190610eb0565b80156103ce5780601f106103a3576101008083540402835291602001916103ce565b820191906000526020600020905b8154815290600101906020018083116103b157829003601f168201915b505050505081565b6000816005816040516103e99190610f1d565b908152602001604051809103902060009054906101000a900460ff16610444576040517f08c379a000000000000000000000000000000000000000000000000000000000815260040161043b90610f80565b60405180910390fd5b6000836040516104549190610f1d565b908152602001604051809103902060030160009054906101000a900460ff16915050919050565b6000818051602081018201805184825260208301602085012081835280955050505050506000915090508060000180546104b490610eb0565b80601f01602080910402602001604051908101604052809291908181526020018280546104e090610eb0565b801561052d5780601f106105025761010080835404028352916020019161052d565b820191906000526020600020905b81548152906001019060200180831161051057829003601f168201915b5050505050908060010154908060020154908060030160009054906101000a900460ff16905084565b816003828154811061056b5761056a610fa0565b5b90600052602060002001819055505050565b6003818154811061058d57600080fd5b906000526020600020016000915090505481565b606060038054806020026020016040519081016040528092919081815260200182805480156105ef57602002820191906000526020600020905b8154815260200190600101908083116105db575b5050505050905090565b6002818154811061060957600080fd5b906000526020600020016000915090505481565b600183908060018154018082558091505060019003906000526020600020016000909190919091509081610651919061117b565b5060028290806001815401808255809150506001900390600052602060002001600090919091909150556003819080600181540180825580915050600190039060005260206000200160009091909190915055826000846040516106b59190610f1d565b908152602001604051809103902060000190816106d2919061117b565b50816000846040516106e49190610f1d565b9081526020016040518091039020600101819055508060008460405161070a9190610f1d565b908152602001604051809103902060020181905550600081116000846040516107339190610f1d565b908152602001604051809103902060030160006101000a81548160ff021916908315150217905550600160058460405161076d9190610f1d565b908152602001604051809103902060006101000a81548160ff021916908315150217905550505050565b600460009054906101000a900473ffffffffffffffffffffffffffffffffffffffff1681565b6060600280548060200260200160405190810160405280929190818152602001828054801561080b57602002820191906000526020600020905b8154815260200190600101908083116107f7575b5050505050905090565b600081519050919050565b600082825260208201905092915050565b6000819050602082019050919050565b600081519050919050565b600082825260208201905092915050565b60005b8381101561087b578082015181840152602081019050610860565b60008484015250505050565b6000601f19601f8301169050919050565b60006108a382610841565b6108ad818561084c565b93506108bd81856020860161085d565b6108c681610887565b840191505092915050565b60006108dd8383610898565b905092915050565b6000602082019050919050565b60006108fd82610815565b6109078185610820565b93508360208202850161091985610831565b8060005b85811015610955578484038952815161093685826108d1565b9450610941836108e5565b925060208a0199505060018101905061091d565b50829750879550505050505092915050565b6000602082019050818103600083015261098181846108f2565b905092915050565b6000604051905090565b600080fd5b600080fd5b6000819050919050565b6109b08161099d565b81146109bb57600080fd5b50565b6000813590506109cd816109a7565b92915050565b6000602082840312156109e9576109e8610993565b5b60006109f7848285016109be565b91505092915050565b600082825260208201905092915050565b6000610a1c82610841565b610a268185610a00565b9350610a3681856020860161085d565b610a3f81610887565b840191505092915050565b60006020820190508181036000830152610a648184610a11565b905092915050565b600080fd5b600080fd5b7f4e487b7100000000000000000000000000000000000000000000000000000000600052604160045260246000fd5b610aae82610887565b810181811067ffffffffffffffff82111715610acd57610acc610a76565b5b80604052505050565b6000610ae0610989565b9050610aec8282610aa5565b919050565b600067ffffffffffffffff821115610b0c57610b0b610a76565b5b610b1582610887565b9050602081019050919050565b82818337600083830152505050565b6000610b44610b3f84610af1565b610ad6565b905082815260208101848484011115610b6057610b5f610a71565b5b610b6b848285610b22565b509392505050565b600082601f830112610b8857610b87610a6c565b5b8135610b98848260208601610b31565b91505092915050565b600060208284031215610bb757610bb6610993565b5b600082013567ffffffffffffffff811115610bd557610bd4610998565b5b610be184828501610b73565b91505092915050565b60008115159050919050565b610bff81610bea565b82525050565b6000602082019050610c1a6000830184610bf6565b92915050565b610c298161099d565b82525050565b60006080820190508181036000830152610c498187610a11565b9050610c586020830186610c20565b610c656040830185610c20565b610c726060830184610bf6565b95945050505050565b60008060408385031215610c9257610c91610993565b5b6000610ca0858286016109be565b9250506020610cb1858286016109be565b9150509250929050565b6000602082019050610cd06000830184610c20565b92915050565b600081519050919050565b600082825260208201905092915050565b6000819050602082019050919050565b610d0b8161099d565b82525050565b6000610d1d8383610d02565b60208301905092915050565b6000602082019050919050565b6000610d4182610cd6565b610d4b8185610ce1565b9350610d5683610cf2565b8060005b83811015610d87578151610d6e8882610d11565b9750610d7983610d29565b925050600181019050610d5a565b5085935050505092915050565b60006020820190508181036000830152610dae8184610d36565b905092915050565b600080600060608486031215610dcf57610dce610993565b5b600084013567ffffffffffffffff811115610ded57610dec610998565b5b610df986828701610b73565b9350506020610e0a868287016109be565b9250506040610e1b868287016109be565b9150509250925092565b600073ffffffffffffffffffffffffffffffffffffffff82169050919050565b6000610e5082610e25565b9050919050565b610e6081610e45565b82525050565b6000602082019050610e7b6000830184610e57565b92915050565b7f4e487b7100000000000000000000000000000000000000000000000000000000600052602260045260246000fd5b60006002820490506001821680610ec857607f821691505b602082108103610edb57610eda610e81565b5b50919050565b600081905092915050565b6000610ef782610841565b610f018185610ee1565b9350610f1181856020860161085d565b80840191505092915050565b6000610f298284610eec565b915081905092915050565b7f4974656d20646f6573206e6f7420657869737400000000000000000000000000600082015250565b6000610f6a601383610a00565b9150610f7582610f34565b602082019050919050565b60006020820190508181036000830152610f9981610f5d565b9050919050565b7f4e487b7100000000000000000000000000000000000000000000000000000000600052603260045260246000fd5b60008190508160005260206000209050919050565b60006020601f8301049050919050565b600082821b905092915050565b6000600883026110317fffffffffffffffffffffffffffffffffffffffffffffffffffffffffffffffff82610ff4565b61103b8683610ff4565b95508019841693508086168417925050509392505050565b6000819050919050565b600061107861107361106e8461099d565b611053565b61099d565b9050919050565b6000819050919050565b6110928361105d565b6110a661109e8261107f565b848454611001565b825550505050565b600090565b6110bb6110ae565b6110c6818484611089565b505050565b5b818110156110ea576110df6000826110b3565b6001810190506110cc565b5050565b601f82111561112f5761110081610fcf565b61110984610fe4565b81016020851015611118578190505b61112c61112485610fe4565b8301826110cb565b50505b505050565b600082821c905092915050565b600061115260001984600802611134565b1980831691505092915050565b600061116b8383611141565b9150826002028217905092915050565b61118482610841565b67ffffffffffffffff81111561119d5761119c610a76565b5b6111a78254610eb0565b6111b28282856110ee565b600060209050601f8311600181146111e557600084156111d3578287015190505b6111dd858261115f565b865550611245565b601f1984166111f386610fcf565b60005b8281101561121b578489015182556001820191506020850194506020810190506111f6565b868310156112385784890151611234601f891682611141565b8355505b6001600288020188555050505b50505050505056fea2646970667358221220b014339cc1bcff88026349f665c0d34a7e89dbf177e95ca9756ce11d0341feab64736f6c63430008130033",
  "immutableReferences": {},
  "source": "//SPDX-License-Identifier:MIT\r\npragma solidity >=0.8.10 <0.8.20;\r\ncontract menuManagement{\r\n    struct Item {\r\n        string name;\r\n        uint price; \r\n        uint quantity; \r\n        bool availability;\r\n    }\r\n    mapping (string => Item)public itms;\r\n    string [] public names;\r\n    uint [] public prices;\r\n    uint [] public quantities;\r\n    address public admin;\r\n    constructor(){\r\n        admin = msg.sender;\r\n    }\r\n\r\n    mapping(string => bool) itemExists;\r\n\r\n    modifier exists(string memory name) {\r\n        require(itemExists[name], \"Item does not exist\");\r\n        _;\r\n    }\r\n\r\n    function addItem(string memory name , uint price, uint qty) public {\r\n        names.push(name);\r\n        prices.push(price);\r\n        quantities.push(qty);\r\n        itms[name].name=name;\r\n        itms[name].price=price;\r\n        itms[name].quantity=qty;\r\n        itms[name].availability=qty > 0;\r\n        itemExists[name] = true;\r\n    }\r\n\r\n    function getItemNames() external view returns (string [] memory){\r\n        return names;\r\n    }\r\n\r\n    function setQuantity(uint qty , uint i) external{\r\n        quantities[i]=qty;\r\n    }\r\n\r\n    function UpdatePrice(string memory name, uint price) private exists(name) {\r\n        require(price > 0, \"Price cannot be 0\");\r\n        itms[name].price=price;\r\n    }\r\n\r\n    function CheckAvailability(string memory name) exists(name) public view returns (bool) {\r\n        return itms[name].availability;\r\n    }\r\n\r\n    function getMenuPrice() public view returns(uint [] memory){\r\n        return prices;\r\n    }\r\n\r\n    function getMenuQuantity() public view returns(uint [] memory){\r\n        /*uint [] memory qty1 = new uint[](1000);\r\n        for (uint i = 0 ; i < names.length ; i++){ \r\n            qty1[i] = itms[names[i]].quantity; \r\n        }*/\r\n        return quantities;\r\n    }\r\n}",
  "sourcePath": "/home/awais/Downloads/Project2/contracts/menuManagement.sol",
  "compiler": {
    "name": "solc",
    "version": "0.8.19+commit.7dd6d404.Emscripten.clang"
  },
  "schemaVersion": "3.4.16",
  "updatedAt": "2024-01-06T10:48:26.393Z",
  "networkType": "ethereum",
  "devdoc": {
    "kind": "dev",
    "methods": {},
    "version": 1
  },
  "userdoc": {
    "kind": "user",
    "methods": {},
    "version": 1
  }
}