{
  "contractName": "OrderProcessingContract",
  "abi": [
    {
      "inputs": [],
      "name": "discAPro",
      "outputs": [
        {
          "internalType": "contract discountsAndPromotions",
          "name": "",
          "type": "address"
        }
      ],
      "stateMutability": "view",
      "type": "function",
      "constant": true
    },
    {
      "inputs": [],
      "name": "mn",
      "outputs": [
        {
          "internalType": "contract menuManagement",
          "name": "",
          "type": "address"
        }
      ],
      "stateMutability": "view",
      "type": "function",
      "constant": true
    },
    {
      "inputs": [
        {
          "internalType": "address",
          "name": "_addrmenu",
          "type": "address"
        },
        {
          "internalType": "address",
          "name": "_addrdiscandpro",
          "type": "address"
        }
      ],
      "name": "setmenuanddiscountsandpromotions",
      "outputs": [],
      "stateMutability": "nonpayable",
      "type": "function"
    },
    {
      "inputs": [],
      "name": "CheckinAvailability",
      "outputs": [
        {
          "internalType": "bool",
          "name": "",
          "type": "bool"
        }
      ],
      "stateMutability": "view",
      "type": "function",
      "constant": true
    },
    {
      "inputs": [],
      "name": "getMenuItems",
      "outputs": [
        {
          "internalType": "string[]",
          "name": "",
          "type": "string[]"
        },
        {
          "internalType": "uint256[]",
          "name": "",
          "type": "uint256[]"
        },
        {
          "internalType": "uint256[]",
          "name": "",
          "type": "uint256[]"
        }
      ],
      "stateMutability": "view",
      "type": "function",
      "constant": true
    },
    {
      "inputs": [
        {
          "internalType": "string[]",
          "name": "itemnames",
          "type": "string[]"
        },
        {
          "internalType": "uint256[]",
          "name": "quantities",
          "type": "uint256[]"
        }
      ],
      "name": "CalculateOrderAmount",
      "outputs": [
        {
          "internalType": "uint256",
          "name": "",
          "type": "uint256"
        }
      ],
      "stateMutability": "nonpayable",
      "type": "function"
    }
  ],
  "bytecode": "0x608060405234801561001057600080fd5b506118e9806100206000396000f3fe608060405234801561001057600080fd5b50600436106100625760003560e01c806337265dff14610067578063a940f7d214610083578063bb93d0fd146100a1578063c2e0a80d146100bf578063d630a1e6146100df578063ffc841bd1461010f575b600080fd5b610081600480360381019061007c9190610b1e565b61012d565b005b61008b6101b2565b6040516100989190610bbd565b60405180910390f35b6100a96101d8565b6040516100b69190610bf3565b60405180910390f35b6100c7610278565b6040516100d693929190610e28565b60405180910390f35b6100f960048036038101906100f4919061117e565b610459565b6040516101069190611205565b60405180910390f35b610117610a88565b6040516101249190611241565b60405180910390f35b816000806101000a81548173ffffffffffffffffffffffffffffffffffffffff021916908373ffffffffffffffffffffffffffffffffffffffff16021790555080600160006101000a81548173ffffffffffffffffffffffffffffffffffffffff021916908373ffffffffffffffffffffffffffffffffffffffff1602179055505050565b600160009054906101000a900473ffffffffffffffffffffffffffffffffffffffff1681565b60008060009054906101000a900473ffffffffffffffffffffffffffffffffffffffff1673ffffffffffffffffffffffffffffffffffffffff1663825bbdac6040518163ffffffff1660e01b8152600401610232906112b9565b602060405180830381865afa15801561024f573d6000803e3d6000fd5b505050506040513d601f19601f820116820180604052508101906102739190611305565b905090565b606080606060008060009054906101000a900473ffffffffffffffffffffffffffffffffffffffff1673ffffffffffffffffffffffffffffffffffffffff166313bc85106040518163ffffffff1660e01b8152600401600060405180830381865afa1580156102eb573d6000803e3d6000fd5b505050506040513d6000823e3d601f19601f820116820180604052508101906103149190611457565b905060008060009054906101000a900473ffffffffffffffffffffffffffffffffffffffff1673ffffffffffffffffffffffffffffffffffffffff1663fb5e33b76040518163ffffffff1660e01b8152600401600060405180830381865afa158015610384573d6000803e3d6000fd5b505050506040513d6000823e3d601f19601f820116820180604052508101906103ad919061154c565b905060008060009054906101000a900473ffffffffffffffffffffffffffffffffffffffff1673ffffffffffffffffffffffffffffffffffffffff1663b37809716040518163ffffffff1660e01b8152600401600060405180830381865afa15801561041d573d6000803e3d6000fd5b505050506040513d6000823e3d601f19601f82011682018060405250810190610446919061154c565b9050828282955095509550505050909192565b60008060008060009054906101000a900473ffffffffffffffffffffffffffffffffffffffff1673ffffffffffffffffffffffffffffffffffffffff166313bc85106040518163ffffffff1660e01b8152600401600060405180830381865afa1580156104ca573d6000803e3d6000fd5b505050506040513d6000823e3d601f19601f820116820180604052508101906104f39190611457565b905060008060009054906101000a900473ffffffffffffffffffffffffffffffffffffffff1673ffffffffffffffffffffffffffffffffffffffff1663fb5e33b76040518163ffffffff1660e01b8152600401600060405180830381865afa158015610563573d6000803e3d6000fd5b505050506040513d6000823e3d601f19601f8201168201806040525081019061058c919061154c565b905060008060009054906101000a900473ffffffffffffffffffffffffffffffffffffffff1673ffffffffffffffffffffffffffffffffffffffff1663b37809716040518163ffffffff1660e01b8152600401600060405180830381865afa1580156105fc573d6000803e3d6000fd5b505050506040513d6000823e3d601f19601f82011682018060405250810190610625919061154c565b90506000805b8451811015610a795788828151811061064757610646611595565b5b602002602001015160405160200161065f9190611600565b6040516020818303038152906040528051906020012085828151811061068857610687611595565b5b60200260200101516040516020016106a09190611600565b6040516020818303038152906040528051906020012003610a66576060600080600080600160009054906101000a900473ffffffffffffffffffffffffffffffffffffffff1673ffffffffffffffffffffffffffffffffffffffff16639a3a8d108b888151811061071457610713611595565b5b60200260200101516040518263ffffffff1660e01b81526004016107389190611650565b600060405180830381865afa158015610755573d6000803e3d6000fd5b505050506040513d6000823e3d601f19601f8201168201806040525081019061077e9190611672565b8095508196508297508398508499505050505050600184036108e85760008054906101000a900473ffffffffffffffffffffffffffffffffffffffff1673ffffffffffffffffffffffffffffffffffffffff16639405c78f848f8a815181106107ea576107e9611595565b5b60200260200101516107fc9190611767565b8f8a8151811061080f5761080e611595565b5b60200260200101518b8a8151811061082a57610829611595565b5b602002602001015161083c9190611798565b6108469190611798565b886040518363ffffffff1660e01b81526004016108649291906117cc565b600060405180830381600087803b15801561087e57600080fd5b505af1158015610892573d6000803e3d6000fd5b505050508886815181106108a9576108a8611595565b5b60200260200101518d88815181106108c4576108c3611595565b5b60200260200101516108d691906117f5565b8b6108e19190611837565b9a50610a52565b60028403610a515760008054906101000a900473ffffffffffffffffffffffffffffffffffffffff1673ffffffffffffffffffffffffffffffffffffffff16639405c78f848f8a815181106109405761093f611595565b5b60200260200101516109529190611767565b8f8a8151811061096557610964611595565b5b60200260200101518b8a815181106109805761097f611595565b5b60200260200101516109929190611798565b61099c9190611798565b886040518363ffffffff1660e01b81526004016109ba9291906117cc565b600060405180830381600087803b1580156109d457600080fd5b505af11580156109e8573d6000803e3d6000fd5b505050508886815181106109ff576109fe611595565b5b6020026020010151606483610a149190611767565b610a1e91906117f5565b8d8881518110610a3157610a30611595565b5b6020026020010151610a4391906117f5565b8b610a4e9190611837565b9a505b5b8680610a5d9061186b565b97505050505050505b8080610a719061186b565b91505061062b565b50849550505050505092915050565b60008054906101000a900473ffffffffffffffffffffffffffffffffffffffff1681565b6000604051905090565b600080fd5b600080fd5b600073ffffffffffffffffffffffffffffffffffffffff82169050919050565b6000610aeb82610ac0565b9050919050565b610afb81610ae0565b8114610b0657600080fd5b50565b600081359050610b1881610af2565b92915050565b60008060408385031215610b3557610b34610ab6565b5b6000610b4385828601610b09565b9250506020610b5485828601610b09565b9150509250929050565b6000819050919050565b6000610b83610b7e610b7984610ac0565b610b5e565b610ac0565b9050919050565b6000610b9582610b68565b9050919050565b6000610ba782610b8a565b9050919050565b610bb781610b9c565b82525050565b6000602082019050610bd26000830184610bae565b92915050565b60008115159050919050565b610bed81610bd8565b82525050565b6000602082019050610c086000830184610be4565b92915050565b600081519050919050565b600082825260208201905092915050565b6000819050602082019050919050565b600081519050919050565b600082825260208201905092915050565b60005b83811015610c74578082015181840152602081019050610c59565b60008484015250505050565b6000601f19601f8301169050919050565b6000610c9c82610c3a565b610ca68185610c45565b9350610cb6818560208601610c56565b610cbf81610c80565b840191505092915050565b6000610cd68383610c91565b905092915050565b6000602082019050919050565b6000610cf682610c0e565b610d008185610c19565b935083602082028501610d1285610c2a565b8060005b85811015610d4e5784840389528151610d2f8582610cca565b9450610d3a83610cde565b925060208a01995050600181019050610d16565b50829750879550505050505092915050565b600081519050919050565b600082825260208201905092915050565b6000819050602082019050919050565b6000819050919050565b610d9f81610d8c565b82525050565b6000610db18383610d96565b60208301905092915050565b6000602082019050919050565b6000610dd582610d60565b610ddf8185610d6b565b9350610dea83610d7c565b8060005b83811015610e1b578151610e028882610da5565b9750610e0d83610dbd565b925050600181019050610dee565b5085935050505092915050565b60006060820190508181036000830152610e428186610ceb565b90508181036020830152610e568185610dca565b90508181036040830152610e6a8184610dca565b9050949350505050565b600080fd5b7f4e487b7100000000000000000000000000000000000000000000000000000000600052604160045260246000fd5b610eb182610c80565b810181811067ffffffffffffffff82111715610ed057610ecf610e79565b5b80604052505050565b6000610ee3610aac565b9050610eef8282610ea8565b919050565b600067ffffffffffffffff821115610f0f57610f0e610e79565b5b602082029050602081019050919050565b600080fd5b600080fd5b600067ffffffffffffffff821115610f4557610f44610e79565b5b610f4e82610c80565b9050602081019050919050565b82818337600083830152505050565b6000610f7d610f7884610f2a565b610ed9565b905082815260208101848484011115610f9957610f98610f25565b5b610fa4848285610f5b565b509392505050565b600082601f830112610fc157610fc0610e74565b5b8135610fd1848260208601610f6a565b91505092915050565b6000610fed610fe884610ef4565b610ed9565b905080838252602082019050602084028301858111156110105761100f610f20565b5b835b8181101561105757803567ffffffffffffffff81111561103557611034610e74565b5b8086016110428982610fac565b85526020850194505050602081019050611012565b5050509392505050565b600082601f83011261107657611075610e74565b5b8135611086848260208601610fda565b91505092915050565b600067ffffffffffffffff8211156110aa576110a9610e79565b5b602082029050602081019050919050565b6110c481610d8c565b81146110cf57600080fd5b50565b6000813590506110e1816110bb565b92915050565b60006110fa6110f58461108f565b610ed9565b9050808382526020820190506020840283018581111561111d5761111c610f20565b5b835b81811015611146578061113288826110d2565b84526020840193505060208101905061111f565b5050509392505050565b600082601f83011261116557611164610e74565b5b81356111758482602086016110e7565b91505092915050565b6000806040838503121561119557611194610ab6565b5b600083013567ffffffffffffffff8111156111b3576111b2610abb565b5b6111bf85828601611061565b925050602083013567ffffffffffffffff8111156111e0576111df610abb565b5b6111ec85828601611150565b9150509250929050565b6111ff81610d8c565b82525050565b600060208201905061121a60008301846111f6565b92915050565b600061122b82610b8a565b9050919050565b61123b81611220565b82525050565b60006020820190506112566000830184611232565b92915050565b600082825260208201905092915050565b7f50697a7a61000000000000000000000000000000000000000000000000000000600082015250565b60006112a360058361125c565b91506112ae8261126d565b602082019050919050565b600060208201905081810360008301526112d281611296565b9050919050565b6112e281610bd8565b81146112ed57600080fd5b50565b6000815190506112ff816112d9565b92915050565b60006020828403121561131b5761131a610ab6565b5b6000611329848285016112f0565b91505092915050565b600061134561134084610f2a565b610ed9565b90508281526020810184848401111561136157611360610f25565b5b61136c848285610c56565b509392505050565b600082601f83011261138957611388610e74565b5b8151611399848260208601611332565b91505092915050565b60006113b56113b084610ef4565b610ed9565b905080838252602082019050602084028301858111156113d8576113d7610f20565b5b835b8181101561141f57805167ffffffffffffffff8111156113fd576113fc610e74565b5b80860161140a8982611374565b855260208501945050506020810190506113da565b5050509392505050565b600082601f83011261143e5761143d610e74565b5b815161144e8482602086016113a2565b91505092915050565b60006020828403121561146d5761146c610ab6565b5b600082015167ffffffffffffffff81111561148b5761148a610abb565b5b61149784828501611429565b91505092915050565b6000815190506114af816110bb565b92915050565b60006114c86114c38461108f565b610ed9565b905080838252602082019050602084028301858111156114eb576114ea610f20565b5b835b81811015611514578061150088826114a0565b8452602084019350506020810190506114ed565b5050509392505050565b600082601f83011261153357611532610e74565b5b81516115438482602086016114b5565b91505092915050565b60006020828403121561156257611561610ab6565b5b600082015167ffffffffffffffff8111156115805761157f610abb565b5b61158c8482850161151e565b91505092915050565b7f4e487b7100000000000000000000000000000000000000000000000000000000600052603260045260246000fd5b600081905092915050565b60006115da82610c3a565b6115e481856115c4565b93506115f4818560208601610c56565b80840191505092915050565b600061160c82846115cf565b915081905092915050565b600061162282610c3a565b61162c818561125c565b935061163c818560208601610c56565b61164581610c80565b840191505092915050565b6000602082019050818103600083015261166a8184611617565b905092915050565b600080600080600060a0868803121561168e5761168d610ab6565b5b600086015167ffffffffffffffff8111156116ac576116ab610abb565b5b6116b888828901611374565b95505060206116c9888289016114a0565b94505060406116da888289016114a0565b93505060606116eb888289016114a0565b92505060806116fc888289016114a0565b9150509295509295909350565b7f4e487b7100000000000000000000000000000000000000000000000000000000600052601260045260246000fd5b7f4e487b7100000000000000000000000000000000000000000000000000000000600052601160045260246000fd5b600061177282610d8c565b915061177d83610d8c565b92508261178d5761178c611709565b5b828204905092915050565b60006117a382610d8c565b91506117ae83610d8c565b92508282039050818111156117c6576117c5611738565b5b92915050565b60006040820190506117e160008301856111f6565b6117ee60208301846111f6565b9392505050565b600061180082610d8c565b915061180b83610d8c565b925082820261181981610d8c565b915082820484148315176118305761182f611738565b5b5092915050565b600061184282610d8c565b915061184d83610d8c565b925082820190508082111561186557611864611738565b5b92915050565b600061187682610d8c565b91507fffffffffffffffffffffffffffffffffffffffffffffffffffffffffffffffff82036118a8576118a7611738565b5b60018201905091905056fea264697066735822122058ace1c25d776ac82215b8e02fca70c1fb12bafdfecb6493f05018c89d80863f64736f6c63430008130033",
  "immutableReferences": {},
  "source": "//SPDX-License-Identifier:MIT\r\npragma solidity >=0.8.10 <0.8.20;\r\nimport \"./menuManagement.sol\";\r\nimport \"./discountsAndPromotions.sol\";\r\ncontract OrderProcessingContract{\r\n    menuManagement public mn;\r\n    discountsAndPromotions public discAPro;\r\n\r\n    function setmenuanddiscountsandpromotions(address _addrmenu , address _addrdiscandpro)public{\r\n        mn=menuManagement(_addrmenu);\r\n        discAPro=discountsAndPromotions(_addrdiscandpro);\r\n    }\r\n\r\n    function CheckinAvailability()public view returns(bool){\r\n        return mn.CheckAvailability(\"Pizza\");\r\n    }\r\n\r\n    function getMenuItems() public view returns(string [] memory , uint [] memory, uint [] memory){\r\n        string [] memory names = mn.getItemNames();\r\n        uint [] memory price = mn.getMenuPrice();\r\n        uint [] memory quantity = mn.getMenuQuantity();\r\n        return (names , price , quantity);\r\n    }\r\n\r\n    function CalculateOrderAmount(string [] memory itemnames , uint [] memory quantities) external returns(uint){\r\n        uint totalAmount;\r\n        string [] memory names = mn.getItemNames();\r\n        uint [] memory price = mn.getMenuPrice();\r\n        uint [] memory quantity = mn.getMenuQuantity();\r\n        uint j = 0;\r\n        for (uint i = 0 ; i < names.length ; i++){\r\n            if (keccak256(abi.encodePacked(names[i])) == keccak256(abi.encodePacked(itemnames[j]))) {\r\n                    string memory nm;\r\n                    uint typs; uint qt ; uint prcper ; uint dur;\r\n                    (nm , typs , qt , prcper , dur) = discAPro.PromotionsandDiscounts(names[i]);\r\n                    if (typs == 1){\r\n                        mn.setQuantity(quantity[i] - quantities[j] - quantities[j]/qt, i);\r\n                        totalAmount += quantities[j] * price[i];\r\n                    } else if (typs == 2) {\r\n                        mn.setQuantity(quantity[i] - quantities[j] - quantities[j]/qt, i);\r\n                        totalAmount += quantities[j] * (prcper / 100 * price[i]);\r\n                    }\r\n                    j++;\r\n            }\r\n        }\r\n        return totalAmount;\r\n    }\r\n}",
  "sourcePath": "/home/awais/Downloads/Project2/contracts/OrderProcessingContract.sol",
  "compiler": {
    "name": "solc",
    "version": "0.8.19+commit.7dd6d404.Emscripten.clang"
  },
  "schemaVersion": "3.4.16",
  "updatedAt": "2024-01-06T10:48:28.059Z",
  "networkType": "ethereum",
  "devdoc": {
    "kind": "dev",
    "methods": {},
    "version": 1
  },
  "userdoc": {
    "kind": "user",
    "methods": {},
    "version": 1
  }
}