{
  "contractName": "rewardsAndLoyalty",
  "abi": [
    {
      "inputs": [
        {
          "internalType": "uint256",
          "name": "",
          "type": "uint256"
        }
      ],
      "name": "buydaysstreak",
      "outputs": [
        {
          "internalType": "uint256",
          "name": "",
          "type": "uint256"
        }
      ],
      "stateMutability": "view",
      "type": "function",
      "constant": true
    },
    {
      "inputs": [
        {
          "internalType": "uint256",
          "name": "",
          "type": "uint256"
        }
      ],
      "name": "reward",
      "outputs": [
        {
          "internalType": "uint256",
          "name": "",
          "type": "uint256"
        }
      ],
      "stateMutability": "view",
      "type": "function",
      "constant": true
    },
    {
      "inputs": [
        {
          "internalType": "uint256",
          "name": "",
          "type": "uint256"
        }
      ],
      "name": "rewardforbuydays",
      "outputs": [
        {
          "internalType": "uint256",
          "name": "",
          "type": "uint256"
        }
      ],
      "stateMutability": "view",
      "type": "function",
      "constant": true
    },
    {
      "inputs": [
        {
          "internalType": "uint256",
          "name": "",
          "type": "uint256"
        }
      ],
      "name": "sentamount",
      "outputs": [
        {
          "internalType": "uint256",
          "name": "",
          "type": "uint256"
        }
      ],
      "stateMutability": "view",
      "type": "function",
      "constant": true
    },
    {
      "inputs": [],
      "name": "getreward",
      "outputs": [
        {
          "internalType": "uint256[]",
          "name": "",
          "type": "uint256[]"
        }
      ],
      "stateMutability": "view",
      "type": "function",
      "constant": true
    },
    {
      "inputs": [],
      "name": "getsentamount",
      "outputs": [
        {
          "internalType": "uint256[]",
          "name": "",
          "type": "uint256[]"
        }
      ],
      "stateMutability": "view",
      "type": "function",
      "constant": true
    },
    {
      "inputs": [],
      "name": "getbuydaysstreak",
      "outputs": [
        {
          "internalType": "uint256[]",
          "name": "",
          "type": "uint256[]"
        }
      ],
      "stateMutability": "view",
      "type": "function",
      "constant": true
    },
    {
      "inputs": [],
      "name": "getrewardforbuydays",
      "outputs": [
        {
          "internalType": "uint256[]",
          "name": "",
          "type": "uint256[]"
        }
      ],
      "stateMutability": "view",
      "type": "function",
      "constant": true
    }
  ],
  "bytecode": "0x6080604052604051806101c00160405280600a61ffff168152602001603261ffff168152602001606461ffff16815260200160c861ffff16815260200160fa61ffff1681526020016101f461ffff1681526020016102ee61ffff1681526020016103e861ffff1681526020016105dc61ffff1681526020016107d061ffff168152602001610bb861ffff16815260200161138861ffff168152602001611d4c61ffff16815260200161271061ffff16815250600090600e6100c192919061026b565b50604051806101c00160405280600361ffff168152602001600561ffff168152602001600a61ffff168152602001600f61ffff168152602001601461ffff168152602001601e61ffff168152602001602861ffff168152602001604661ffff168152602001609661ffff16815260200160b461ffff16815260200160dc61ffff16815260200161015e61ffff1681526020016101f461ffff16815260200161032061ffff16815250600190600e61017992919061026b565b50604051806101000160405280600361ffff168152602001600561ffff168152602001600a61ffff168152602001601e61ffff168152602001603c61ffff168152602001605a61ffff16815260200160b461ffff16815260200161016d61ffff1681525060029060086101ed9291906102be565b50604051806101000160405280600160ff168152602001600260ff168152602001600360ff168152602001600a60ff168152602001601e60ff168152602001603260ff168152602001604660ff168152602001606460ff168152506003906008610258929190610311565b5034801561026557600080fd5b50610380565b8280548282559060005260206000209081019282156102ad579160200282015b828111156102ac578251829061ffff1690559160200191906001019061028b565b5b5090506102ba9190610363565b5090565b828054828255906000526020600020908101928215610300579160200282015b828111156102ff578251829061ffff169055916020019190600101906102de565b5b50905061030d9190610363565b5090565b828054828255906000526020600020908101928215610352579160200282015b82811115610351578251829060ff16905591602001919060010190610331565b5b50905061035f9190610363565b5090565b5b8082111561037c576000816000905550600101610364565b5090565b61055d8061038f6000396000f3fe608060405234801561001057600080fd5b50600436106100885760003560e01c80636f8e0a081161005b5780636f8e0a081461013b5780637038482414610159578063a9fb763c14610177578063af04289c146101a757610088565b806314f47b611461008d5780632d7ed63b146100bd5780633f1df44b146100ed5780636d9a29aa1461010b575b600080fd5b6100a760048036038101906100a291906103f0565b6101c5565b6040516100b4919061042c565b60405180910390f35b6100d760048036038101906100d291906103f0565b6101e9565b6040516100e4919061042c565b60405180910390f35b6100f561020d565b6040516101029190610505565b60405180910390f35b610125600480360381019061012091906103f0565b610265565b604051610132919061042c565b60405180910390f35b610143610289565b6040516101509190610505565b60405180910390f35b6101616102e1565b60405161016e9190610505565b60405180910390f35b610191600480360381019061018c91906103f0565b610339565b60405161019e919061042c565b60405180910390f35b6101af61035d565b6040516101bc9190610505565b60405180910390f35b600381815481106101d557600080fd5b906000526020600020016000915090505481565b600281815481106101f957600080fd5b906000526020600020016000915090505481565b6060600080548060200260200160405190810160405280929190818152602001828054801561025b57602002820191906000526020600020905b815481526020019060010190808311610247575b5050505050905090565b6000818154811061027557600080fd5b906000526020600020016000915090505481565b606060018054806020026020016040519081016040528092919081815260200182805480156102d757602002820191906000526020600020905b8154815260200190600101908083116102c3575b5050505050905090565b6060600380548060200260200160405190810160405280929190818152602001828054801561032f57602002820191906000526020600020905b81548152602001906001019080831161031b575b5050505050905090565b6001818154811061034957600080fd5b906000526020600020016000915090505481565b606060028054806020026020016040519081016040528092919081815260200182805480156103ab57602002820191906000526020600020905b815481526020019060010190808311610397575b5050505050905090565b600080fd5b6000819050919050565b6103cd816103ba565b81146103d857600080fd5b50565b6000813590506103ea816103c4565b92915050565b600060208284031215610406576104056103b5565b5b6000610414848285016103db565b91505092915050565b610426816103ba565b82525050565b6000602082019050610441600083018461041d565b92915050565b600081519050919050565b600082825260208201905092915050565b6000819050602082019050919050565b61047c816103ba565b82525050565b600061048e8383610473565b60208301905092915050565b6000602082019050919050565b60006104b282610447565b6104bc8185610452565b93506104c783610463565b8060005b838110156104f85781516104df8882610482565b97506104ea8361049a565b9250506001810190506104cb565b5085935050505092915050565b6000602082019050818103600083015261051f81846104a7565b90509291505056fea264697066735822122092fd33fbaf9c1fec0d0edf3706a1d58f661b6b7b9a2f792a795c0c92eb37d69a64736f6c63430008130033",
  "immutableReferences": {},
  "source": "//SPDX-License-Identifier:MIT\r\npragma solidity >=0.8.10 <0.8.20;\r\ncontract rewardsAndLoyalty {\r\n    uint [] public sentamount = [10 , 50 , 100 , 200 , 250 , 500 , 750 , 1000 , 1500 , 2000 , 3000 , 5000 , 7500 , 10000];\r\n    uint [] public reward = [3 , 5 , 10 , 15 , 20 , 30 , 40 , 70 , 150 , 180 , 220 , 350 , 500 , 800];\r\n    uint [] public buydaysstreak = [3 , 5 , 10 , 30 , 60 , 90 , 180 , 365];\r\n    uint [] public rewardforbuydays = [1 , 2 , 3 , 10 , 30 , 50 , 70 , 100];\r\n    function getreward() public view returns(uint[] memory){\r\n        return reward;\r\n    }\r\n    function getsentamount() public view returns(uint[] memory){\r\n        return sentamount;\r\n    }\r\n    function getbuydaysstreak() public view returns(uint[] memory){\r\n        return buydaysstreak;\r\n    }\r\n    function getrewardforbuydays() public view returns(uint[] memory){\r\n        return rewardforbuydays;\r\n    }\r\n}",
  "sourcePath": "/home/awais/Downloads/Project2/contracts/rewardsAndLoyalty.sol",
  "compiler": {
    "name": "solc",
    "version": "0.8.19+commit.7dd6d404.Emscripten.clang"
  },
  "schemaVersion": "3.4.16",
  "updatedAt": "2024-01-06T10:48:27.234Z",
  "networkType": "ethereum",
  "devdoc": {
    "kind": "dev",
    "methods": {},
    "version": 1
  },
  "userdoc": {
    "kind": "user",
    "methods": {},
    "version": 1
  }
}