{
  "contractName": "AccessControl",
  "abi": [
    {
      "inputs": [
        {
          "internalType": "address",
          "name": "_universityAdmin",
          "type": "address"
        }
      ],
      "stateMutability": "nonpayable",
      "type": "constructor"
    },
    {
      "inputs": [
        {
          "internalType": "uint256",
          "name": "",
          "type": "uint256"
        }
      ],
      "name": "cafeAdmin",
      "outputs": [
        {
          "internalType": "address",
          "name": "",
          "type": "address"
        }
      ],
      "stateMutability": "view",
      "type": "function"
    },
    {
      "inputs": [
        {
          "internalType": "address",
          "name": "",
          "type": "address"
        }
      ],
      "name": "isCafeAdmin",
      "outputs": [
        {
          "internalType": "bool",
          "name": "",
          "type": "bool"
        }
      ],
      "stateMutability": "view",
      "type": "function"
    },
    {
      "inputs": [
        {
          "internalType": "address",
          "name": "",
          "type": "address"
        }
      ],
      "name": "isCafeStaff",
      "outputs": [
        {
          "internalType": "bool",
          "name": "",
          "type": "bool"
        }
      ],
      "stateMutability": "view",
      "type": "function"
    },
    {
      "inputs": [],
      "name": "universityAdmin",
      "outputs": [
        {
          "internalType": "address",
          "name": "",
          "type": "address"
        }
      ],
      "stateMutability": "view",
      "type": "function"
    },
    {
      "inputs": [
        {
          "internalType": "address",
          "name": "admin",
          "type": "address"
        }
      ],
      "name": "addCafeAdmin",
      "outputs": [],
      "stateMutability": "nonpayable",
      "type": "function"
    },
    {
      "inputs": [
        {
          "internalType": "address",
          "name": "admin",
          "type": "address"
        }
      ],
      "name": "removeCafeAdmin",
      "outputs": [],
      "stateMutability": "nonpayable",
      "type": "function"
    },
    {
      "inputs": [
        {
          "internalType": "address",
          "name": "staff",
          "type": "address"
        }
      ],
      "name": "addCafeStaff",
      "outputs": [],
      "stateMutability": "nonpayable",
      "type": "function"
    },
    {
      "inputs": [
        {
          "internalType": "address",
          "name": "staff",
          "type": "address"
        }
      ],
      "name": "removeCafeStaff",
      "outputs": [],
      "stateMutability": "nonpayable",
      "type": "function"
    }
  ],
  "bytecode": "0x608060405234801561001057600080fd5b50604051610ba7380380610ba7833981810160405281019061003291906100db565b806000806101000a81548173ffffffffffffffffffffffffffffffffffffffff021916908373ffffffffffffffffffffffffffffffffffffffff16021790555050610108565b600080fd5b600073ffffffffffffffffffffffffffffffffffffffff82169050919050565b60006100a88261007d565b9050919050565b6100b88161009d565b81146100c357600080fd5b50565b6000815190506100d5816100af565b92915050565b6000602082840312156100f1576100f0610078565b5b60006100ff848285016100c6565b91505092915050565b610a90806101176000396000f3fe608060405234801561001057600080fd5b50600436106100885760003560e01c8063d3dfa6591161005b578063d3dfa65914610125578063e092911114610141578063e92ea5b51461015f578063fe6bf7b81461018f57610088565b80630b4080241461008d5780632c0e4d0c146100bd57806332cc2b0e146100ed57806377b2868214610109575b600080fd5b6100a760048036038101906100a29190610767565b6101ab565b6040516100b491906107d5565b60405180910390f35b6100d760048036038101906100d2919061081c565b6101ea565b6040516100e49190610864565b60405180910390f35b6101076004803603810190610102919061081c565b61020a565b005b610123600480360381019061011e919061081c565b6102f1565b005b61013f600480360381019061013a919061081c565b6104b5565b005b61014961059c565b60405161015691906107d5565b60405180910390f35b6101796004803603810190610174919061081c565b6105c0565b6040516101869190610864565b60405180910390f35b6101a960048036038101906101a4919061081c565b6105e0565b005b600181815481106101bb57600080fd5b906000526020600020016000915054906101000a900473ffffffffffffffffffffffffffffffffffffffff1681565b60026020528060005260406000206000915054906101000a900460ff1681565b600260003373ffffffffffffffffffffffffffffffffffffffff1673ffffffffffffffffffffffffffffffffffffffff16815260200190815260200160002060009054906101000a900460ff16610296576040517f08c379a000000000000000000000000000000000000000000000000000000000815260040161028d90610902565b60405180910390fd5b6001600360008373ffffffffffffffffffffffffffffffffffffffff1673ffffffffffffffffffffffffffffffffffffffff16815260200190815260200160002060006101000a81548160ff02191690831515021790555050565b60008054906101000a900473ffffffffffffffffffffffffffffffffffffffff1673ffffffffffffffffffffffffffffffffffffffff163373ffffffffffffffffffffffffffffffffffffffff161461037f576040517f08c379a000000000000000000000000000000000000000000000000000000000815260040161037690610994565b60405180910390fd5b6000600260008373ffffffffffffffffffffffffffffffffffffffff1673ffffffffffffffffffffffffffffffffffffffff16815260200190815260200160002060006101000a81548160ff02191690831515021790555060005b6001805490508110156104b1578173ffffffffffffffffffffffffffffffffffffffff1660018281548110610412576104116109b4565b5b9060005260206000200160009054906101000a900473ffffffffffffffffffffffffffffffffffffffff1673ffffffffffffffffffffffffffffffffffffffff160361049e576001818154811061046c5761046b6109b4565b5b9060005260206000200160006101000a81549073ffffffffffffffffffffffffffffffffffffffff02191690556104b1565b80806104a990610a12565b9150506103da565b5050565b600260003373ffffffffffffffffffffffffffffffffffffffff1673ffffffffffffffffffffffffffffffffffffffff16815260200190815260200160002060009054906101000a900460ff16610541576040517f08c379a000000000000000000000000000000000000000000000000000000000815260040161053890610902565b60405180910390fd5b6000600360008373ffffffffffffffffffffffffffffffffffffffff1673ffffffffffffffffffffffffffffffffffffffff16815260200190815260200160002060006101000a81548160ff02191690831515021790555050565b60008054906101000a900473ffffffffffffffffffffffffffffffffffffffff1681565b60036020528060005260406000206000915054906101000a900460ff1681565b60008054906101000a900473ffffffffffffffffffffffffffffffffffffffff1673ffffffffffffffffffffffffffffffffffffffff163373ffffffffffffffffffffffffffffffffffffffff161461066e576040517f08c379a000000000000000000000000000000000000000000000000000000000815260040161066590610994565b60405180910390fd5b6001600260008373ffffffffffffffffffffffffffffffffffffffff1673ffffffffffffffffffffffffffffffffffffffff16815260200190815260200160002060006101000a81548160ff0219169083151502179055506001819080600181540180825580915050600190039060005260206000200160009091909190916101000a81548173ffffffffffffffffffffffffffffffffffffffff021916908373ffffffffffffffffffffffffffffffffffffffff16021790555050565b600080fd5b6000819050919050565b61074481610731565b811461074f57600080fd5b50565b6000813590506107618161073b565b92915050565b60006020828403121561077d5761077c61072c565b5b600061078b84828501610752565b91505092915050565b600073ffffffffffffffffffffffffffffffffffffffff82169050919050565b60006107bf82610794565b9050919050565b6107cf816107b4565b82525050565b60006020820190506107ea60008301846107c6565b92915050565b6107f9816107b4565b811461080457600080fd5b50565b600081359050610816816107f0565b92915050565b6000602082840312156108325761083161072c565b5b600061084084828501610807565b91505092915050565b60008115159050919050565b61085e81610849565b82525050565b60006020820190506108796000830184610855565b92915050565b600082825260208201905092915050565b7f4f6e6c7920636166652061646d696e2063616e2063616c6c207468697320667560008201527f6e6374696f6e2e00000000000000000000000000000000000000000000000000602082015250565b60006108ec60278361087f565b91506108f782610890565b604082019050919050565b6000602082019050818103600083015261091b816108df565b9050919050565b7f4f6e6c7920756e69766572736974792061646d696e2063616e2063616c6c207460008201527f6869732066756e6374696f6e2e00000000000000000000000000000000000000602082015250565b600061097e602d8361087f565b915061098982610922565b604082019050919050565b600060208201905081810360008301526109ad81610971565b9050919050565b7f4e487b7100000000000000000000000000000000000000000000000000000000600052603260045260246000fd5b7f4e487b7100000000000000000000000000000000000000000000000000000000600052601160045260246000fd5b6000610a1d82610731565b91507fffffffffffffffffffffffffffffffffffffffffffffffffffffffffffffffff8203610a4f57610a4e6109e3565b5b60018201905091905056fea2646970667358221220fda998bea42a159293f2e3f0274745f464f68888ff7055a5df1459857c4ff2c164736f6c63430008130033",
  "immutableReferences": {},
  "source": "//SPDX-License-Identifier:MIT\r\npragma solidity >=0.8.10 <0.8.20;\r\ncontract AccessControl {\r\n    address public universityAdmin;\r\n    address [] public cafeAdmin; \r\n    mapping(address => bool) public isCafeAdmin;\r\n    mapping(address => bool) public isCafeStaff;\r\n\r\n    constructor(address _universityAdmin) {\r\n        universityAdmin = _universityAdmin;\r\n    }\r\n\r\n    modifier onlyUniversityAdmin() {\r\n        require(msg.sender == universityAdmin, \"Only university admin can call this function.\");\r\n        _;\r\n    }\r\n\r\n    modifier onlyCafeAdmin() {\r\n        require(isCafeAdmin[msg.sender], \"Only cafe admin can call this function.\");\r\n        _;\r\n    }\r\n\r\n    function addCafeAdmin(address admin) public onlyUniversityAdmin {\r\n        isCafeAdmin[admin] = true;\r\n        cafeAdmin.push(admin);\r\n    }\r\n\r\n    function removeCafeAdmin(address admin) public onlyUniversityAdmin {\r\n        isCafeAdmin[admin] = false;\r\n        for  (uint i = 0 ; i < cafeAdmin.length ; i++){\r\n            if (cafeAdmin[i]==admin){\r\n                delete cafeAdmin[i];\r\n                break;\r\n            }\r\n        }\r\n    }\r\n\r\n    function addCafeStaff(address staff) public onlyCafeAdmin {\r\n        isCafeStaff[staff] = true;\r\n    }\r\n\r\n    function removeCafeStaff(address staff) public onlyCafeAdmin {\r\n        isCafeStaff[staff] = false;\r\n    }\r\n}",
  "sourcePath": "C:\\Users\\Zaing\\Documents\\BlockchainWork\\Project2\\contracts\\AccessControl.sol",
  "compiler": {
    "name": "solc",
    "version": "0.8.19+commit.7dd6d404.Emscripten.clang"
  },
  "schemaVersion": "3.4.16",
  "updatedAt": "2024-01-06T10:07:14.349Z",
  "networkType": "ethereum",
  "devdoc": {
    "kind": "dev",
    "methods": {},
    "version": 1
  },
  "userdoc": {
    "kind": "user",
    "methods": {},
    "version": 1
  }
}