{
  "contractName": "discountsAndPromotions",
  "abi": [
    {
      "inputs": [
        {
          "internalType": "address",
          "name": "_addrmenu",
          "type": "address"
        },
        {
          "internalType": "address",
          "name": "_addraccesscontrol",
          "type": "address"
        }
      ],
      "stateMutability": "nonpayable",
      "type": "constructor"
    },
    {
      "inputs": [],
      "name": "AC",
      "outputs": [
        {
          "internalType": "contract AccessControl",
          "name": "",
          "type": "address"
        }
      ],
      "stateMutability": "view",
      "type": "function",
      "constant": true
    },
    {
      "inputs": [
        {
          "internalType": "string",
          "name": "",
          "type": "string"
        }
      ],
      "name": "PromotionsandDiscounts",
      "outputs": [
        {
          "internalType": "string",
          "name": "name",
          "type": "string"
        },
        {
          "internalType": "uint256",
          "name": "types",
          "type": "uint256"
        },
        {
          "internalType": "uint256",
          "name": "quantity",
          "type": "uint256"
        },
        {
          "internalType": "uint256",
          "name": "pricepercentagededuction",
          "type": "uint256"
        },
        {
          "internalType": "uint256",
          "name": "duration",
          "type": "uint256"
        }
      ],
      "stateMutability": "view",
      "type": "function",
      "constant": true
    },
    {
      "inputs": [],
      "name": "mn",
      "outputs": [
        {
          "internalType": "contract menuManagement",
          "name": "",
          "type": "address"
        }
      ],
      "stateMutability": "view",
      "type": "function",
      "constant": true
    },
    {
      "inputs": [
        {
          "internalType": "string[]",
          "name": "items",
          "type": "string[]"
        },
        {
          "internalType": "uint256",
          "name": "quantity",
          "type": "uint256"
        },
        {
          "internalType": "uint256",
          "name": "_duration",
          "type": "uint256"
        }
      ],
      "name": "AddBuyAndGetFreePromotion",
      "outputs": [],
      "stateMutability": "nonpayable",
      "type": "function"
    },
    {
      "inputs": [
        {
          "internalType": "string[]",
          "name": "items",
          "type": "string[]"
        },
        {
          "internalType": "uint256",
          "name": "percentage",
          "type": "uint256"
        },
        {
          "internalType": "uint256",
          "name": "_duration",
          "type": "uint256"
        }
      ],
      "name": "AddSimpleDiscount",
      "outputs": [],
      "stateMutability": "nonpayable",
      "type": "function"
    }
  ],
  "bytecode": "0x60806040523480156200001157600080fd5b5060405162001fe938038062001fe983398181016040528101906200003791906200012a565b816000806101000a81548173ffffffffffffffffffffffffffffffffffffffff021916908373ffffffffffffffffffffffffffffffffffffffff16021790555080600160006101000a81548173ffffffffffffffffffffffffffffffffffffffff021916908373ffffffffffffffffffffffffffffffffffffffff160217905550505062000171565b600080fd5b600073ffffffffffffffffffffffffffffffffffffffff82169050919050565b6000620000f282620000c5565b9050919050565b6200010481620000e5565b81146200011057600080fd5b50565b6000815190506200012481620000f9565b92915050565b60008060408385031215620001445762000143620000c0565b5b6000620001548582860162000113565b9250506020620001678582860162000113565b9150509250929050565b611e6880620001816000396000f3fe608060405234801561001057600080fd5b50600436106100575760003560e01c80639a3a8d101461005c578063bcf0196b14610090578063d271960c146100ae578063fa30dbd9146100ca578063ffc841bd146100e6575b600080fd5b61007660048036038101906100719190611032565b610104565b604051610087959493929190611113565b60405180910390f35b6100986101d8565b6040516100a591906111ec565b60405180910390f35b6100c860048036038101906100c39190611319565b6101fe565b005b6100e460048036038101906100df9190611319565b6107c0565b005b6100ee610d8d565b6040516100fb91906113a9565b60405180910390f35b60058180516020810182018051848252602083016020850120818352809550505050505060009150905080600001805461013d906113f3565b80601f0160208091040260200160405190810160405280929190818152602001828054610169906113f3565b80156101b65780601f1061018b576101008083540402835291602001916101b6565b820191906000526020600020905b81548152906001019060200180831161019957829003601f168201915b5050505050908060010154908060020154908060030154908060040154905085565b600160009054906101000a900473ffffffffffffffffffffffffffffffffffffffff1681565b600160009054906101000a900473ffffffffffffffffffffffffffffffffffffffff1673ffffffffffffffffffffffffffffffffffffffff1663e92ea5b5336040518263ffffffff1660e01b81526004016102599190611445565b602060405180830381865afa158015610276573d6000803e3d6000fd5b505050506040513d601f19601f8201168201806040525081019061029a9190611498565b8061033d5750600160009054906101000a900473ffffffffffffffffffffffffffffffffffffffff1673ffffffffffffffffffffffffffffffffffffffff16632c0e4d0c336040518263ffffffff1660e01b81526004016102fb9190611445565b602060405180830381865afa158015610318573d6000803e3d6000fd5b505050506040513d601f19601f8201168201806040525081019061033c9190611498565b5b61037c576040517f08c379a000000000000000000000000000000000000000000000000000000000815260040161037390611537565b60405180910390fd5b605a8211156103c0576040517f08c379a00000000000000000000000000000000000000000000000000000000081526004016103b7906115a3565b60405180910390fd5b60008054906101000a900473ffffffffffffffffffffffffffffffffffffffff1673ffffffffffffffffffffffffffffffffffffffff166313bc85106040518163ffffffff1660e01b8152600401600060405180830381865afa15801561042b573d6000803e3d6000fd5b505050506040513d6000823e3d601f19601f8201168201806040525081019061045491906116e8565b60029080519060200190610469929190610db1565b5060008054906101000a900473ffffffffffffffffffffffffffffffffffffffff1673ffffffffffffffffffffffffffffffffffffffff1663fb5e33b76040518163ffffffff1660e01b8152600401600060405180830381865afa1580156104d5573d6000803e3d6000fd5b505050506040513d6000823e3d601f19601f820116820180604052508101906104fe9190611809565b60039080519060200190610513929190610e0a565b5060008054906101000a900473ffffffffffffffffffffffffffffffffffffffff1673ffffffffffffffffffffffffffffffffffffffff1663b37809716040518163ffffffff1660e01b8152600401600060405180830381865afa15801561057f573d6000803e3d6000fd5b505050506040513d6000823e3d601f19601f820116820180604052508101906105a89190611809565b600490805190602001906105bd929190610e0a565b506000805b6002805490508110156107b9578482815181106105e2576105e1611852565b5b60200260200101516040516020016105fa91906118bd565b604051602081830303815290604052805190602001206002828154811061062457610623611852565b5b9060005260206000200160405160200161063e919061196c565b60405160208183030381529060405280519060200120036107a6576002818154811061066d5761066c611852565b5b9060005260206000200160056002838154811061068d5761068c611852565b5b906000526020600020016040516106a4919061196c565b908152602001604051809103902060000190816106c19190611b3b565b5060026005600283815481106106da576106d9611852565b5b906000526020600020016040516106f1919061196c565b9081526020016040518091039020600101819055508360056002838154811061071d5761071c611852565b5b90600052602060002001604051610734919061196c565b90815260200160405180910390206003018190555082426107559190611c52565b60056002838154811061076b5761076a611852565b5b90600052602060002001604051610782919061196c565b90815260200160405180910390206004018190555081806107a290611c86565b9250505b80806107b190611c86565b9150506105c2565b5050505050565b600160009054906101000a900473ffffffffffffffffffffffffffffffffffffffff1673ffffffffffffffffffffffffffffffffffffffff1663e92ea5b5336040518263ffffffff1660e01b815260040161081b9190611445565b602060405180830381865afa158015610838573d6000803e3d6000fd5b505050506040513d601f19601f8201168201806040525081019061085c9190611498565b806108ff5750600160009054906101000a900473ffffffffffffffffffffffffffffffffffffffff1673ffffffffffffffffffffffffffffffffffffffff16632c0e4d0c336040518263ffffffff1660e01b81526004016108bd9190611445565b602060405180830381865afa1580156108da573d6000803e3d6000fd5b505050506040513d601f19601f820116820180604052508101906108fe9190611498565b5b61093e576040517f08c379a000000000000000000000000000000000000000000000000000000000815260040161093590611537565b60405180910390fd5b60008211801561094e5750600081115b61098d576040517f08c379a000000000000000000000000000000000000000000000000000000000815260040161098490611d40565b60405180910390fd5b60008054906101000a900473ffffffffffffffffffffffffffffffffffffffff1673ffffffffffffffffffffffffffffffffffffffff166313bc85106040518163ffffffff1660e01b8152600401600060405180830381865afa1580156109f8573d6000803e3d6000fd5b505050506040513d6000823e3d601f19601f82011682018060405250810190610a2191906116e8565b60029080519060200190610a36929190610db1565b5060008054906101000a900473ffffffffffffffffffffffffffffffffffffffff1673ffffffffffffffffffffffffffffffffffffffff1663fb5e33b76040518163ffffffff1660e01b8152600401600060405180830381865afa158015610aa2573d6000803e3d6000fd5b505050506040513d6000823e3d601f19601f82011682018060405250810190610acb9190611809565b60039080519060200190610ae0929190610e0a565b5060008054906101000a900473ffffffffffffffffffffffffffffffffffffffff1673ffffffffffffffffffffffffffffffffffffffff1663b37809716040518163ffffffff1660e01b8152600401600060405180830381865afa158015610b4c573d6000803e3d6000fd5b505050506040513d6000823e3d601f19601f82011682018060405250810190610b759190611809565b60049080519060200190610b8a929190610e0a565b506000805b600280549050811015610d8657848281518110610baf57610bae611852565b5b6020026020010151604051602001610bc791906118bd565b6040516020818303038152906040528051906020012060028281548110610bf157610bf0611852565b5b90600052602060002001604051602001610c0b919061196c565b6040516020818303038152906040528051906020012003610d735783600560028381548110610c3d57610c3c611852565b5b90600052602060002001604051610c54919061196c565b90815260200160405180910390206002018190555060028181548110610c7d57610c7c611852565b5b90600052602060002001600560028381548110610c9d57610c9c611852565b5b90600052602060002001604051610cb4919061196c565b90815260200160405180910390206000019081610cd19190611b3b565b506001600560028381548110610cea57610ce9611852565b5b90600052602060002001604051610d01919061196c565b9081526020016040518091039020600101819055508242610d229190611c52565b600560028381548110610d3857610d37611852565b5b90600052602060002001604051610d4f919061196c565b9081526020016040518091039020600401819055508180610d6f90611c86565b9250505b8080610d7e90611c86565b915050610b8f565b5050505050565b60008054906101000a900473ffffffffffffffffffffffffffffffffffffffff1681565b828054828255906000526020600020908101928215610df9579160200282015b82811115610df8578251829081610de89190611d60565b5091602001919060010190610dd1565b5b509050610e069190610e57565b5090565b828054828255906000526020600020908101928215610e46579160200282015b82811115610e45578251825591602001919060010190610e2a565b5b509050610e539190610e7b565b5090565b5b80821115610e775760008181610e6e9190610e98565b50600101610e58565b5090565b5b80821115610e94576000816000905550600101610e7c565b5090565b508054610ea4906113f3565b6000825580601f10610eb65750610ed5565b601f016020900490600052602060002090810190610ed49190610e7b565b5b50565b6000604051905090565b600080fd5b600080fd5b600080fd5b600080fd5b6000601f19601f8301169050919050565b7f4e487b7100000000000000000000000000000000000000000000000000000000600052604160045260246000fd5b610f3f82610ef6565b810181811067ffffffffffffffff82111715610f5e57610f5d610f07565b5b80604052505050565b6000610f71610ed8565b9050610f7d8282610f36565b919050565b600067ffffffffffffffff821115610f9d57610f9c610f07565b5b610fa682610ef6565b9050602081019050919050565b82818337600083830152505050565b6000610fd5610fd084610f82565b610f67565b905082815260208101848484011115610ff157610ff0610ef1565b5b610ffc848285610fb3565b509392505050565b600082601f83011261101957611018610eec565b5b8135611029848260208601610fc2565b91505092915050565b60006020828403121561104857611047610ee2565b5b600082013567ffffffffffffffff81111561106657611065610ee7565b5b61107284828501611004565b91505092915050565b600081519050919050565b600082825260208201905092915050565b60005b838110156110b557808201518184015260208101905061109a565b60008484015250505050565b60006110cc8261107b565b6110d68185611086565b93506110e6818560208601611097565b6110ef81610ef6565b840191505092915050565b6000819050919050565b61110d816110fa565b82525050565b600060a082019050818103600083015261112d81886110c1565b905061113c6020830187611104565b6111496040830186611104565b6111566060830185611104565b6111636080830184611104565b9695505050505050565b600073ffffffffffffffffffffffffffffffffffffffff82169050919050565b6000819050919050565b60006111b26111ad6111a88461116d565b61118d565b61116d565b9050919050565b60006111c482611197565b9050919050565b60006111d6826111b9565b9050919050565b6111e6816111cb565b82525050565b600060208201905061120160008301846111dd565b92915050565b600067ffffffffffffffff82111561122257611221610f07565b5b602082029050602081019050919050565b600080fd5b600061124b61124684611207565b610f67565b9050808382526020820190506020840283018581111561126e5761126d611233565b5b835b818110156112b557803567ffffffffffffffff81111561129357611292610eec565b5b8086016112a08982611004565b85526020850194505050602081019050611270565b5050509392505050565b600082601f8301126112d4576112d3610eec565b5b81356112e4848260208601611238565b91505092915050565b6112f6816110fa565b811461130157600080fd5b50565b600081359050611313816112ed565b92915050565b60008060006060848603121561133257611331610ee2565b5b600084013567ffffffffffffffff8111156113505761134f610ee7565b5b61135c868287016112bf565b935050602061136d86828701611304565b925050604061137e86828701611304565b9150509250925092565b6000611393826111b9565b9050919050565b6113a381611388565b82525050565b60006020820190506113be600083018461139a565b92915050565b7f4e487b7100000000000000000000000000000000000000000000000000000000600052602260045260246000fd5b6000600282049050600182168061140b57607f821691505b60208210810361141e5761141d6113c4565b5b50919050565b600061142f8261116d565b9050919050565b61143f81611424565b82525050565b600060208201905061145a6000830184611436565b92915050565b60008115159050919050565b61147581611460565b811461148057600080fd5b50565b6000815190506114928161146c565b92915050565b6000602082840312156114ae576114ad610ee2565b5b60006114bc84828501611483565b91505092915050565b7f4f6e6c792063616665207374616666206f722061646d696e2063616e2063616c60008201527f6c20746869732066756e6374696f6e0000000000000000000000000000000000602082015250565b6000611521602f83611086565b915061152c826114c5565b604082019050919050565b6000602082019050818103600083015261155081611514565b9050919050565b7f50657263656e746167652063616e6e6f74206578636565656420393000000000600082015250565b600061158d601c83611086565b915061159882611557565b602082019050919050565b600060208201905081810360008301526115bc81611580565b9050919050565b60006115d66115d184610f82565b610f67565b9050828152602081018484840111156115f2576115f1610ef1565b5b6115fd848285611097565b509392505050565b600082601f83011261161a57611619610eec565b5b815161162a8482602086016115c3565b91505092915050565b600061164661164184611207565b610f67565b9050808382526020820190506020840283018581111561166957611668611233565b5b835b818110156116b057805167ffffffffffffffff81111561168e5761168d610eec565b5b80860161169b8982611605565b8552602085019450505060208101905061166b565b5050509392505050565b600082601f8301126116cf576116ce610eec565b5b81516116df848260208601611633565b91505092915050565b6000602082840312156116fe576116fd610ee2565b5b600082015167ffffffffffffffff81111561171c5761171b610ee7565b5b611728848285016116ba565b91505092915050565b600067ffffffffffffffff82111561174c5761174b610f07565b5b602082029050602081019050919050565b60008151905061176c816112ed565b92915050565b600061178561178084611731565b610f67565b905080838252602082019050602084028301858111156117a8576117a7611233565b5b835b818110156117d157806117bd888261175d565b8452602084019350506020810190506117aa565b5050509392505050565b600082601f8301126117f0576117ef610eec565b5b8151611800848260208601611772565b91505092915050565b60006020828403121561181f5761181e610ee2565b5b600082015167ffffffffffffffff81111561183d5761183c610ee7565b5b611849848285016117db565b91505092915050565b7f4e487b7100000000000000000000000000000000000000000000000000000000600052603260045260246000fd5b600081905092915050565b60006118978261107b565b6118a18185611881565b93506118b1818560208601611097565b80840191505092915050565b60006118c9828461188c565b915081905092915050565b60008190508160005260206000209050919050565b600081546118f6816113f3565b6119008186611881565b9450600182166000811461191b576001811461193057611963565b60ff1983168652811515820286019350611963565b611939856118d4565b60005b8381101561195b5781548189015260018201915060208101905061193c565b838801955050505b50505092915050565b600061197882846118e9565b915081905092915050565b600081549050611992816113f3565b9050919050565b60008190508160005260206000209050919050565b60006020601f8301049050919050565b600082821b905092915050565b6000600883026119fb7fffffffffffffffffffffffffffffffffffffffffffffffffffffffffffffffff826119be565b611a0586836119be565b95508019841693508086168417925050509392505050565b6000611a38611a33611a2e846110fa565b61118d565b6110fa565b9050919050565b6000819050919050565b611a5283611a1d565b611a66611a5e82611a3f565b8484546119cb565b825550505050565b600090565b611a7b611a6e565b611a86818484611a49565b505050565b5b81811015611aaa57611a9f600082611a73565b600181019050611a8c565b5050565b601f821115611aef57611ac0816118d4565b611ac9846119ae565b81016020851015611ad8578190505b611aec611ae4856119ae565b830182611a8b565b50505b505050565b600082821c905092915050565b6000611b1260001984600802611af4565b1980831691505092915050565b6000611b2b8383611b01565b9150826002028217905092915050565b818103611b49575050611c21565b611b5282611983565b67ffffffffffffffff811115611b6b57611b6a610f07565b5b611b7582546113f3565b611b80828285611aae565b6000601f831160018114611baf5760008415611b9d578287015490505b611ba78582611b1f565b865550611c1a565b601f198416611bbd87611999565b9650611bc8866118d4565b60005b82811015611bf057848901548255600182019150600185019450602081019050611bcb565b86831015611c0d5784890154611c09601f891682611b01565b8355505b6001600288020188555050505b5050505050505b565b7f4e487b7100000000000000000000000000000000000000000000000000000000600052601160045260246000fd5b6000611c5d826110fa565b9150611c68836110fa565b9250828201905080821115611c8057611c7f611c23565b5b92915050565b6000611c91826110fa565b91507fffffffffffffffffffffffffffffffffffffffffffffffffffffffffffffffff8203611cc357611cc2611c23565b5b600182019050919050565b7f5175616e74697479206f72206475726174696f6e2063616e6e6f74206265207a60008201527f65726f2e00000000000000000000000000000000000000000000000000000000602082015250565b6000611d2a602483611086565b9150611d3582611cce565b604082019050919050565b60006020820190508181036000830152611d5981611d1d565b9050919050565b611d698261107b565b67ffffffffffffffff811115611d8257611d81610f07565b5b611d8c82546113f3565b611d97828285611aae565b600060209050601f831160018114611dca5760008415611db8578287015190505b611dc28582611b1f565b865550611e2a565b601f198416611dd8866118d4565b60005b82811015611e0057848901518255600182019150602085019450602081019050611ddb565b86831015611e1d5784890151611e19601f891682611b01565b8355505b6001600288020188555050505b50505050505056fea26469706673582212204c54e0b739541cf4453dd85e9fbf8cba2a064ed311a1a66dbc1688aee1baebf064736f6c63430008130033",
  "immutableReferences": {},
  "source": "//SPDX-License-Identifier:MIT\r\npragma solidity >=0.8.10 <0.8.20;\r\nimport \"./menuManagement.sol\";\r\nimport \"./AccessControl.sol\";\r\ncontract discountsAndPromotions {\r\n    menuManagement public mn;\r\n    AccessControl public AC;\r\n    string [] names ;\r\n    uint [] prices;\r\n    uint [] quantities;\r\n    constructor(address _addrmenu , address _addraccesscontrol) {\r\n        mn = menuManagement(_addrmenu);\r\n        AC = AccessControl(_addraccesscontrol);\r\n    }\r\n    struct PromAndDisc {\r\n        string name;\r\n        uint types;\r\n        uint quantity;\r\n        uint pricepercentagededuction;\r\n        uint duration;\r\n    }\r\n    mapping(string=> PromAndDisc) public PromotionsandDiscounts;\r\n\r\n    modifier onlyCafeStaffOrAdmin() {\r\n        require(AC.isCafeStaff(msg.sender) || AC.isCafeAdmin(msg.sender), \"Only cafe staff or admin can call this function\");\r\n        _;\r\n    }\r\n    //The Quantity here is the quantity \r\n    //after which the customer will be eligible for free meal.\r\n    function AddBuyAndGetFreePromotion (string [] memory items , uint quantity , uint _duration) onlyCafeStaffOrAdmin public {\r\n        require(quantity > 0 && _duration > 0 , \"Quantity or duration cannot be zero.\");\r\n        names = mn.getItemNames();\r\n        prices = mn.getMenuPrice() ;\r\n        quantities = mn.getMenuQuantity();//OPC.getMenuItems();//Tuples in solidity\r\n        uint j = 0;\r\n        for (uint i = 0 ; i < names.length ; i++){\r\n            if (keccak256(abi.encodePacked(names[i])) == keccak256(abi.encodePacked(items[j]))){\r\n                PromotionsandDiscounts[names[i]].quantity=quantity;\r\n                PromotionsandDiscounts[names[i]].name=names[i];\r\n                PromotionsandDiscounts[names[i]].types=1;\r\n                PromotionsandDiscounts[names[i]].duration= block.timestamp + _duration;\r\n                j++;\r\n            }\r\n        }\r\n    }\r\n\r\n    function AddSimpleDiscount(string [] memory items , uint percentage , uint _duration) onlyCafeStaffOrAdmin public {\r\n        require(percentage <= 90 , \"Percentage cannot exceeed 90\");\r\n        names = mn.getItemNames();\r\n        prices = mn.getMenuPrice() ;\r\n        quantities = mn.getMenuQuantity();//OPC.getMenuItems();//Tuples in solidity\r\n        uint j = 0;\r\n        for (uint i = 0 ; i < names.length ; i++){\r\n            if (keccak256(abi.encodePacked(names[i])) == keccak256(abi.encodePacked(items[j]))){\r\n                PromotionsandDiscounts[names[i]].name=names[i];\r\n                PromotionsandDiscounts[names[i]].types=2;\r\n                PromotionsandDiscounts[names[i]].pricepercentagededuction=percentage;\r\n                PromotionsandDiscounts[names[i]].duration= block.timestamp + _duration;\r\n                j++;\r\n            }\r\n        }\r\n    }\r\n}",
  "sourcePath": "C:\\Users\\Zaing\\Documents\\BlockchainWork\\Project2\\contracts\\discountsAndPromotions.sol",
  "compiler": {
    "name": "solc",
    "version": "0.8.19+commit.7dd6d404.Emscripten.clang"
  },
  "schemaVersion": "3.4.16",
  "updatedAt": "2024-01-06T10:07:14.342Z",
  "networkType": "ethereum",
  "devdoc": {
    "kind": "dev",
    "methods": {},
    "version": 1
  },
  "userdoc": {
    "kind": "user",
    "methods": {},
    "version": 1
  }
}