{
  "contractName": "FASTCOIN",
  "abi": [
    {
      "inputs": [
        {
          "internalType": "uint256",
          "name": "_numTokens",
          "type": "uint256"
        },
        {
          "internalType": "address",
          "name": "_addraccesscontrol",
          "type": "address"
        }
      ],
      "stateMutability": "nonpayable",
      "type": "constructor"
    },
    {
      "anonymous": false,
      "inputs": [
        {
          "indexed": false,
          "internalType": "address",
          "name": "owner",
          "type": "address"
        },
        {
          "indexed": false,
          "internalType": "address",
          "name": "spender",
          "type": "address"
        },
        {
          "indexed": false,
          "internalType": "uint256",
          "name": "value",
          "type": "uint256"
        }
      ],
      "name": "Approval",
      "type": "event"
    },
    {
      "anonymous": false,
      "inputs": [
        {
          "indexed": false,
          "internalType": "address",
          "name": "from",
          "type": "address"
        },
        {
          "indexed": false,
          "internalType": "address",
          "name": "to",
          "type": "address"
        },
        {
          "indexed": false,
          "internalType": "uint256",
          "name": "value",
          "type": "uint256"
        }
      ],
      "name": "Transfer",
      "type": "event"
    },
    {
      "inputs": [],
      "name": "AC",
      "outputs": [
        {
          "internalType": "contract AccessControl",
          "name": "",
          "type": "address"
        }
      ],
      "stateMutability": "view",
      "type": "function",
      "constant": true
    },
    {
      "inputs": [],
      "name": "RAL",
      "outputs": [
        {
          "internalType": "contract rewardsAndLoyalty",
          "name": "",
          "type": "address"
        }
      ],
      "stateMutability": "view",
      "type": "function",
      "constant": true
    },
    {
      "inputs": [],
      "name": "totalSupply",
      "outputs": [
        {
          "internalType": "uint256",
          "name": "",
          "type": "uint256"
        }
      ],
      "stateMutability": "view",
      "type": "function",
      "constant": true
    },
    {
      "inputs": [
        {
          "internalType": "address",
          "name": "account",
          "type": "address"
        }
      ],
      "name": "balanceOf",
      "outputs": [
        {
          "internalType": "uint256",
          "name": "",
          "type": "uint256"
        }
      ],
      "stateMutability": "view",
      "type": "function",
      "constant": true
    },
    {
      "inputs": [
        {
          "internalType": "address",
          "name": "recipient",
          "type": "address"
        },
        {
          "internalType": "uint256",
          "name": "amount",
          "type": "uint256"
        }
      ],
      "name": "transfer",
      "outputs": [
        {
          "internalType": "bool",
          "name": "",
          "type": "bool"
        }
      ],
      "stateMutability": "nonpayable",
      "type": "function"
    },
    {
      "inputs": [
        {
          "internalType": "address",
          "name": "spender",
          "type": "address"
        },
        {
          "internalType": "uint256",
          "name": "value",
          "type": "uint256"
        }
      ],
      "name": "approve",
      "outputs": [
        {
          "internalType": "bool",
          "name": "",
          "type": "bool"
        }
      ],
      "stateMutability": "nonpayable",
      "type": "function"
    },
    {
      "inputs": [
        {
          "internalType": "address",
          "name": "owner",
          "type": "address"
        },
        {
          "internalType": "address",
          "name": "spender",
          "type": "address"
        }
      ],
      "name": "allowance",
      "outputs": [
        {
          "internalType": "uint256",
          "name": "",
          "type": "uint256"
        }
      ],
      "stateMutability": "view",
      "type": "function",
      "constant": true
    },
    {
      "inputs": [
        {
          "internalType": "address",
          "name": "sender",
          "type": "address"
        },
        {
          "internalType": "address",
          "name": "recipient",
          "type": "address"
        },
        {
          "internalType": "uint256",
          "name": "amount",
          "type": "uint256"
        }
      ],
      "name": "transferFrom",
      "outputs": [
        {
          "internalType": "bool",
          "name": "",
          "type": "bool"
        }
      ],
      "stateMutability": "nonpayable",
      "type": "function"
    }
  ],
  "bytecode": "0x60806040523480156200001157600080fd5b506040516200181a3803806200181a833981810160405281019062000037919062000172565b8160008190555080600660006101000a81548173ffffffffffffffffffffffffffffffffffffffff021916908373ffffffffffffffffffffffffffffffffffffffff160217905550600054600160003373ffffffffffffffffffffffffffffffffffffffff1673ffffffffffffffffffffffffffffffffffffffff168152602001908152602001600020819055505050620001b9565b600080fd5b6000819050919050565b620000e781620000d2565b8114620000f357600080fd5b50565b6000815190506200010781620000dc565b92915050565b600073ffffffffffffffffffffffffffffffffffffffff82169050919050565b60006200013a826200010d565b9050919050565b6200014c816200012d565b81146200015857600080fd5b50565b6000815190506200016c8162000141565b92915050565b600080604083850312156200018c576200018b620000cd565b5b60006200019c85828601620000f6565b9250506020620001af858286016200015b565b9150509250929050565b61165180620001c96000396000f3fe608060405234801561001057600080fd5b50600436106100885760003560e01c806370a082311161005b57806370a0823114610129578063a9059cbb14610159578063bcf0196b14610189578063dd62ed3e146101a757610088565b8063095ea7b31461008d5780630e96c3d8146100bd57806318160ddd146100db57806323b872dd146100f9575b600080fd5b6100a760048036038101906100a29190610f46565b6101d7565b6040516100b49190610fa1565b60405180910390f35b6100c56103aa565b6040516100d2919061101b565b60405180910390f35b6100e36103d0565b6040516100f09190611045565b60405180910390f35b610113600480360381019061010e9190611060565b6103d9565b6040516101209190610fa1565b60405180910390f35b610143600480360381019061013e91906110b3565b610ca8565b6040516101509190611045565b60405180910390f35b610173600480360381019061016e9190610f46565b610cf1565b6040516101809190610fa1565b60405180910390f35b610191610df1565b60405161019e9190611101565b60405180910390f35b6101c160048036038101906101bc919061111c565b610e17565b6040516101ce9190611045565b60405180910390f35b6000600660009054906101000a900473ffffffffffffffffffffffffffffffffffffffff1673ffffffffffffffffffffffffffffffffffffffff1663e09291116040518163ffffffff1660e01b8152600401602060405180830381865afa158015610246573d6000803e3d6000fd5b505050506040513d601f19601f8201168201806040525081019061026a9190611171565b73ffffffffffffffffffffffffffffffffffffffff163373ffffffffffffffffffffffffffffffffffffffff16146102d7576040517f08c379a00000000000000000000000000000000000000000000000000000000081526004016102ce90611221565b60405180910390fd5b81600160003373ffffffffffffffffffffffffffffffffffffffff1673ffffffffffffffffffffffffffffffffffffffff16815260200190815260200160002054101561032357600080fd5b81600360003373ffffffffffffffffffffffffffffffffffffffff1673ffffffffffffffffffffffffffffffffffffffff16815260200190815260200160002060008573ffffffffffffffffffffffffffffffffffffffff1673ffffffffffffffffffffffffffffffffffffffff1681526020019081526020016000208190555092915050565b600560009054906101000a900473ffffffffffffffffffffffffffffffffffffffff1681565b60008054905090565b6000600660009054906101000a900473ffffffffffffffffffffffffffffffffffffffff1673ffffffffffffffffffffffffffffffffffffffff16632c0e4d0c336040518263ffffffff1660e01b81526004016104369190611250565b602060405180830381865afa158015610453573d6000803e3d6000fd5b505050506040513d601f19601f820116820180604052508101906104779190611297565b6104b6576040517f08c379a00000000000000000000000000000000000000000000000000000000081526004016104ad90611336565b60405180910390fd5b600160008573ffffffffffffffffffffffffffffffffffffffff1673ffffffffffffffffffffffffffffffffffffffff1681526020019081526020016000205482111561050257600080fd5b600360008573ffffffffffffffffffffffffffffffffffffffff1673ffffffffffffffffffffffffffffffffffffffff16815260200190815260200160002060003373ffffffffffffffffffffffffffffffffffffffff1673ffffffffffffffffffffffffffffffffffffffff1681526020019081526020016000205482111561058b57600080fd5b600260008573ffffffffffffffffffffffffffffffffffffffff1673ffffffffffffffffffffffffffffffffffffffff16815260200190815260200160002054426105d69190611385565b600260008673ffffffffffffffffffffffffffffffffffffffff1673ffffffffffffffffffffffffffffffffffffffff1681526020019081526020016000208190555062015180600260008673ffffffffffffffffffffffffffffffffffffffff1673ffffffffffffffffffffffffffffffffffffffff1681526020019081526020016000205411156106ad576000600460008673ffffffffffffffffffffffffffffffffffffffff1673ffffffffffffffffffffffffffffffffffffffff16815260200190815260200160002081905550610ac7565b6000600560009054906101000a900473ffffffffffffffffffffffffffffffffffffffff1673ffffffffffffffffffffffffffffffffffffffff16633f1df44b6040518163ffffffff1660e01b8152600401600060405180830381865afa15801561071c573d6000803e3d6000fd5b505050506040513d6000823e3d601f19601f820116820180604052508101906107459190611527565b90506000600560009054906101000a900473ffffffffffffffffffffffffffffffffffffffff1673ffffffffffffffffffffffffffffffffffffffff16636f8e0a086040518163ffffffff1660e01b8152600401600060405180830381865afa1580156107b6573d6000803e3d6000fd5b505050506040513d6000823e3d601f19601f820116820180604052508101906107df9190611527565b90506000600560009054906101000a900473ffffffffffffffffffffffffffffffffffffffff1673ffffffffffffffffffffffffffffffffffffffff1663af04289c6040518163ffffffff1660e01b8152600401600060405180830381865afa158015610850573d6000803e3d6000fd5b505050506040513d6000823e3d601f19601f820116820180604052508101906108799190611527565b90506000600560009054906101000a900473ffffffffffffffffffffffffffffffffffffffff1673ffffffffffffffffffffffffffffffffffffffff1663703848246040518163ffffffff1660e01b8152600401600060405180830381865afa1580156108ea573d6000803e3d6000fd5b505050506040513d6000823e3d601f19601f820116820180604052508101906109139190611527565b905060005b84518110156109cb5784818151811061093457610933611570565b5b60200260200101518711156109b85783818151811061095657610955611570565b5b6020026020010151600160008b73ffffffffffffffffffffffffffffffffffffffff1673ffffffffffffffffffffffffffffffffffffffff16815260200190815260200160002060008282546109ac919061159f565b925050819055506109cb565b80806109c3906115d3565b915050610918565b5060005b8251811015610ac1578281815181106109eb576109ea611570565b5b6020026020010151600460008b73ffffffffffffffffffffffffffffffffffffffff1673ffffffffffffffffffffffffffffffffffffffff168152602001908152602001600020541115610aae57818181518110610a4c57610a4b611570565b5b6020026020010151600160008b73ffffffffffffffffffffffffffffffffffffffff1673ffffffffffffffffffffffffffffffffffffffff1681526020019081526020016000206000828254610aa2919061159f565b92505081905550610ac1565b8080610ab9906115d3565b9150506109cf565b50505050505b81600160008673ffffffffffffffffffffffffffffffffffffffff1673ffffffffffffffffffffffffffffffffffffffff1681526020019081526020016000206000828254610b169190611385565b9250508190555081600160008573ffffffffffffffffffffffffffffffffffffffff1673ffffffffffffffffffffffffffffffffffffffff1681526020019081526020016000206000828254610b6c919061159f565b9250508190555081600360008673ffffffffffffffffffffffffffffffffffffffff1673ffffffffffffffffffffffffffffffffffffffff16815260200190815260200160002060003373ffffffffffffffffffffffffffffffffffffffff1673ffffffffffffffffffffffffffffffffffffffff1681526020019081526020016000206000828254610bff9190611385565b9250508190555042600260008673ffffffffffffffffffffffffffffffffffffffff1673ffffffffffffffffffffffffffffffffffffffff168152602001908152602001600020819055506001600460008673ffffffffffffffffffffffffffffffffffffffff1673ffffffffffffffffffffffffffffffffffffffff1681526020019081526020016000206000828254610c9a919061159f565b925050819055509392505050565b6000600160008373ffffffffffffffffffffffffffffffffffffffff1673ffffffffffffffffffffffffffffffffffffffff168152602001908152602001600020549050919050565b600081600160003373ffffffffffffffffffffffffffffffffffffffff1673ffffffffffffffffffffffffffffffffffffffff168152602001908152602001600020541015610d3f57600080fd5b81600160003373ffffffffffffffffffffffffffffffffffffffff1673ffffffffffffffffffffffffffffffffffffffff1681526020019081526020016000206000828254610d8e9190611385565b9250508190555081600160008573ffffffffffffffffffffffffffffffffffffffff1673ffffffffffffffffffffffffffffffffffffffff1681526020019081526020016000206000828254610de4919061159f565b9250508190555092915050565b600660009054906101000a900473ffffffffffffffffffffffffffffffffffffffff1681565b6000600360008473ffffffffffffffffffffffffffffffffffffffff1673ffffffffffffffffffffffffffffffffffffffff16815260200190815260200160002060008373ffffffffffffffffffffffffffffffffffffffff1673ffffffffffffffffffffffffffffffffffffffff16815260200190815260200160002054905092915050565b6000604051905090565b600080fd5b600080fd5b600073ffffffffffffffffffffffffffffffffffffffff82169050919050565b6000610edd82610eb2565b9050919050565b610eed81610ed2565b8114610ef857600080fd5b50565b600081359050610f0a81610ee4565b92915050565b6000819050919050565b610f2381610f10565b8114610f2e57600080fd5b50565b600081359050610f4081610f1a565b92915050565b60008060408385031215610f5d57610f5c610ea8565b5b6000610f6b85828601610efb565b9250506020610f7c85828601610f31565b9150509250929050565b60008115159050919050565b610f9b81610f86565b82525050565b6000602082019050610fb66000830184610f92565b92915050565b6000819050919050565b6000610fe1610fdc610fd784610eb2565b610fbc565b610eb2565b9050919050565b6000610ff382610fc6565b9050919050565b600061100582610fe8565b9050919050565b61101581610ffa565b82525050565b6000602082019050611030600083018461100c565b92915050565b61103f81610f10565b82525050565b600060208201905061105a6000830184611036565b92915050565b60008060006060848603121561107957611078610ea8565b5b600061108786828701610efb565b935050602061109886828701610efb565b92505060406110a986828701610f31565b9150509250925092565b6000602082840312156110c9576110c8610ea8565b5b60006110d784828501610efb565b91505092915050565b60006110eb82610fe8565b9050919050565b6110fb816110e0565b82525050565b600060208201905061111660008301846110f2565b92915050565b6000806040838503121561113357611132610ea8565b5b600061114185828601610efb565b925050602061115285828601610efb565b9150509250929050565b60008151905061116b81610ee4565b92915050565b60006020828403121561118757611186610ea8565b5b60006111958482850161115c565b91505092915050565b600082825260208201905092915050565b7f4f6e6c79206f776e65722063616e20617070726f766520736f6d656f6e65206660008201527f6f7220746f6b656e730000000000000000000000000000000000000000000000602082015250565b600061120b60298361119e565b9150611216826111af565b604082019050919050565b6000602082019050818103600083015261123a816111fe565b9050919050565b61124a81610ed2565b82525050565b60006020820190506112656000830184611241565b92915050565b61127481610f86565b811461127f57600080fd5b50565b6000815190506112918161126b565b92915050565b6000602082840312156112ad576112ac610ea8565b5b60006112bb84828501611282565b91505092915050565b7f596f752063616e206f6e6c792073656e64206d6f6e657920746f20636166652060008201527f6f776e6572732e00000000000000000000000000000000000000000000000000602082015250565b600061132060278361119e565b915061132b826112c4565b604082019050919050565b6000602082019050818103600083015261134f81611313565b9050919050565b7f4e487b7100000000000000000000000000000000000000000000000000000000600052601160045260246000fd5b600061139082610f10565b915061139b83610f10565b92508282039050818111156113b3576113b2611356565b5b92915050565b600080fd5b6000601f19601f8301169050919050565b7f4e487b7100000000000000000000000000000000000000000000000000000000600052604160045260246000fd5b611407826113be565b810181811067ffffffffffffffff82111715611426576114256113cf565b5b80604052505050565b6000611439610e9e565b905061144582826113fe565b919050565b600067ffffffffffffffff821115611465576114646113cf565b5b602082029050602081019050919050565b600080fd5b60008151905061148a81610f1a565b92915050565b60006114a361149e8461144a565b61142f565b905080838252602082019050602084028301858111156114c6576114c5611476565b5b835b818110156114ef57806114db888261147b565b8452602084019350506020810190506114c8565b5050509392505050565b600082601f83011261150e5761150d6113b9565b5b815161151e848260208601611490565b91505092915050565b60006020828403121561153d5761153c610ea8565b5b600082015167ffffffffffffffff81111561155b5761155a610ead565b5b611567848285016114f9565b91505092915050565b7f4e487b7100000000000000000000000000000000000000000000000000000000600052603260045260246000fd5b60006115aa82610f10565b91506115b583610f10565b92508282019050808211156115cd576115cc611356565b5b92915050565b60006115de82610f10565b91507fffffffffffffffffffffffffffffffffffffffffffffffffffffffffffffffff82036116105761160f611356565b5b60018201905091905056fea264697066735822122045fadca35d761e373928d85dd11fee2b1cd0554806d68b7a9f01b38b9f3470ed64736f6c63430008130033",
  "immutableReferences": {},
  "source": "//SPDX-License-Identifier:MIT\r\npragma solidity >=0.8.10 <0.8.20;\r\nimport \"./rewardsAndLoyalty.sol\";\r\nimport \"./AccessControl.sol\";\r\ninterface ERC20 {\r\n    function totalSupply() external view returns (uint256);\r\n    function balanceOf(address account) external view returns (uint256);\r\n    function transfer(address recipient, uint256 amount) external returns (bool);\r\n    function allowance(address owner, address spender) external view returns (uint256);\r\n    function approve(address spender, uint256 value) external returns (bool);\r\n    function transferFrom(address sender, address recipient, uint256 amount) external returns (bool);\r\n    event Transfer(address from, address to, uint256 value);\r\n    event Approval(address owner, address spender, uint256 value);\r\n}\r\n\r\ncontract FASTCOIN is ERC20 {\r\n    uint numTokens;\r\n    mapping(address=>uint) balance;\r\n    mapping(address=>uint) paymenttime;\r\n    mapping(address=> mapping(address=>uint)) approvalLimit;\r\n    mapping(address=>uint)daystreak;\r\n    rewardsAndLoyalty public RAL;\r\n    AccessControl public AC;\r\n    constructor (uint _numTokens , address _addraccesscontrol) {\r\n        numTokens = _numTokens;\r\n        AC = AccessControl(_addraccesscontrol);\r\n        balance[msg.sender] = numTokens;\r\n    }\r\n\r\n    modifier onlyAdmin() {\r\n        require(msg.sender == AC.universityAdmin(),\"Only owner can approve someone for tokens\");\r\n        _;\r\n    }\r\n    function totalSupply() external view returns (uint256){\r\n        return numTokens;\r\n    }\r\n\r\n    function balanceOf(address account) external view returns (uint256){\r\n        return balance[account];\r\n    }\r\n\r\n    function transfer(address recipient, uint256 amount) external returns (bool){\r\n        require (balance[msg.sender] >= amount) ;\r\n        balance[msg.sender] -= amount;\r\n        balance[recipient] += amount;\r\n    }\r\n\r\n    function approve(address spender, uint256 value) external onlyAdmin returns (bool){\r\n        require (balance[msg.sender] >= value);\r\n        approvalLimit[msg.sender][spender] = value;\r\n    }\r\n\r\n    function allowance(address owner, address spender) external view returns\r\n    (uint256){\r\n        return approvalLimit[owner][spender];\r\n    }\r\n    modifier CafeOwner() {\r\n        require(AC.isCafeAdmin(msg.sender) , \"You can only send money to cafe owners.\");\r\n        _;\r\n    }\r\n    function transferFrom(address sender, address recipient, uint256 amount) external CafeOwner returns\r\n    (bool){\r\n        require (amount <= balance[sender]);\r\n        require (amount <= approvalLimit[sender][msg.sender]);\r\n        paymenttime[sender]=(block.timestamp - paymenttime[sender]) ;\r\n        if (paymenttime[sender] > 24 hours){\r\n            daystreak[sender]=0;\r\n        } else {\r\n            uint [] memory stamt = RAL.getsentamount();\r\n            uint [] memory rwd = RAL.getreward();\r\n            uint [] memory bdystk = RAL.getbuydaysstreak();\r\n            uint [] memory rwdbdystk = RAL.getrewardforbuydays();\r\n            for (uint i = 0 ; i < stamt.length ; i++){\r\n                if (amount > stamt[i]){\r\n                    balance[sender]+=rwd[i];\r\n                    break;\r\n                }\r\n            }\r\n\r\n            for (uint i = 0 ; i < bdystk.length ; i++){\r\n                if (daystreak[sender] > bdystk[i]){\r\n                    balance[sender]+=rwdbdystk[i];\r\n                    break;\r\n                }\r\n            }\r\n        }\r\n        balance[sender] -= amount;\r\n        balance[recipient] += amount;\r\n        approvalLimit[sender][msg.sender] -= amount;\r\n        paymenttime[sender]=block.timestamp;\r\n        daystreak[sender]+=1;\r\n    }\r\n\r\n}",
  "sourcePath": "C:\\Users\\Zaing\\Documents\\BlockchainWork\\Project2\\contracts\\FASTCOIN.sol",
  "compiler": {
    "name": "solc",
    "version": "0.8.19+commit.7dd6d404.Emscripten.clang"
  },
  "schemaVersion": "3.4.16",
  "updatedAt": "2024-01-06T10:07:13.964Z",
  "networkType": "ethereum",
  "devdoc": {
    "kind": "dev",
    "methods": {},
    "version": 1
  },
  "userdoc": {
    "kind": "user",
    "methods": {},
    "version": 1
  }
}