{
  "contractName": "menuManagement",
  "abi": [
    {
      "inputs": [
        {
          "internalType": "address",
          "name": "_accesscontroladdr",
          "type": "address"
        }
      ],
      "stateMutability": "nonpayable",
      "type": "constructor"
    },
    {
      "inputs": [],
      "name": "AC",
      "outputs": [
        {
          "internalType": "contract AccessControl",
          "name": "",
          "type": "address"
        }
      ],
      "stateMutability": "view",
      "type": "function",
      "constant": true
    },
    {
      "inputs": [],
      "name": "admin",
      "outputs": [
        {
          "internalType": "address",
          "name": "",
          "type": "address"
        }
      ],
      "stateMutability": "view",
      "type": "function",
      "constant": true
    },
    {
      "inputs": [
        {
          "internalType": "string",
          "name": "",
          "type": "string"
        }
      ],
      "name": "itms",
      "outputs": [
        {
          "internalType": "string",
          "name": "name",
          "type": "string"
        },
        {
          "internalType": "uint256",
          "name": "price",
          "type": "uint256"
        },
        {
          "internalType": "uint256",
          "name": "quantity",
          "type": "uint256"
        },
        {
          "internalType": "bool",
          "name": "availability",
          "type": "bool"
        }
      ],
      "stateMutability": "view",
      "type": "function",
      "constant": true
    },
    {
      "inputs": [
        {
          "internalType": "uint256",
          "name": "",
          "type": "uint256"
        }
      ],
      "name": "names",
      "outputs": [
        {
          "internalType": "string",
          "name": "",
          "type": "string"
        }
      ],
      "stateMutability": "view",
      "type": "function",
      "constant": true
    },
    {
      "inputs": [
        {
          "internalType": "uint256",
          "name": "",
          "type": "uint256"
        }
      ],
      "name": "prices",
      "outputs": [
        {
          "internalType": "uint256",
          "name": "",
          "type": "uint256"
        }
      ],
      "stateMutability": "view",
      "type": "function",
      "constant": true
    },
    {
      "inputs": [
        {
          "internalType": "uint256",
          "name": "",
          "type": "uint256"
        }
      ],
      "name": "quantities",
      "outputs": [
        {
          "internalType": "uint256",
          "name": "",
          "type": "uint256"
        }
      ],
      "stateMutability": "view",
      "type": "function",
      "constant": true
    },
    {
      "inputs": [
        {
          "internalType": "string",
          "name": "name",
          "type": "string"
        },
        {
          "internalType": "uint256",
          "name": "price",
          "type": "uint256"
        },
        {
          "internalType": "uint256",
          "name": "qty",
          "type": "uint256"
        }
      ],
      "name": "addItem",
      "outputs": [],
      "stateMutability": "nonpayable",
      "type": "function"
    },
    {
      "inputs": [],
      "name": "getItemNames",
      "outputs": [
        {
          "internalType": "string[]",
          "name": "",
          "type": "string[]"
        }
      ],
      "stateMutability": "view",
      "type": "function",
      "constant": true
    },
    {
      "inputs": [
        {
          "internalType": "uint256",
          "name": "qty",
          "type": "uint256"
        },
        {
          "internalType": "uint256",
          "name": "i",
          "type": "uint256"
        },
        {
          "internalType": "string",
          "name": "name",
          "type": "string"
        }
      ],
      "name": "setQuantity",
      "outputs": [],
      "stateMutability": "nonpayable",
      "type": "function"
    },
    {
      "inputs": [
        {
          "internalType": "string",
          "name": "name",
          "type": "string"
        },
        {
          "internalType": "uint256",
          "name": "price",
          "type": "uint256"
        }
      ],
      "name": "UpdatePrice",
      "outputs": [],
      "stateMutability": "nonpayable",
      "type": "function"
    },
    {
      "inputs": [
        {
          "internalType": "string",
          "name": "name",
          "type": "string"
        }
      ],
      "name": "CheckAvailability",
      "outputs": [
        {
          "internalType": "bool",
          "name": "",
          "type": "bool"
        }
      ],
      "stateMutability": "view",
      "type": "function",
      "constant": true
    },
    {
      "inputs": [],
      "name": "getMenuPrice",
      "outputs": [
        {
          "internalType": "uint256[]",
          "name": "",
          "type": "uint256[]"
        }
      ],
      "stateMutability": "view",
      "type": "function",
      "constant": true
    },
    {
      "inputs": [],
      "name": "getMenuQuantity",
      "outputs": [
        {
          "internalType": "uint256[]",
          "name": "",
          "type": "uint256[]"
        }
      ],
      "stateMutability": "view",
      "type": "function",
      "constant": true
    }
  ],
  "bytecode": "0x60806040523480156200001157600080fd5b5060405162001d1038038062001d1083398181016040528101906200003791906200012a565b33600460006101000a81548173ffffffffffffffffffffffffffffffffffffffff021916908373ffffffffffffffffffffffffffffffffffffffff16021790555080600560006101000a81548173ffffffffffffffffffffffffffffffffffffffff021916908373ffffffffffffffffffffffffffffffffffffffff160217905550506200015c565b600080fd5b600073ffffffffffffffffffffffffffffffffffffffff82169050919050565b6000620000f282620000c5565b9050919050565b6200010481620000e5565b81146200011057600080fd5b50565b6000815190506200012481620000f9565b92915050565b600060208284031215620001435762000142620000c0565b5b6000620001538482850162000113565b91505092915050565b611ba4806200016c6000396000f3fe608060405234801561001057600080fd5b50600436106100cf5760003560e01c8063a41254031161008c578063bcf0196b11610066578063bcf0196b1461023b578063d5e6c33314610259578063f851a44014610275578063fb5e33b714610293576100cf565b8063a4125403146101bd578063b3780971146101ed578063bc31c1c11461020b576100cf565b806305b0e354146100d457806313bc8510146100f05780634622ab031461010e5780635f4104fb1461013e578063825bbdac1461015a5780638aa0fc101461018a575b600080fd5b6100ee60048036038101906100e99190610f63565b6102b1565b005b6100f86105c5565b6040516101059190611100565b60405180910390f35b61012860048036038101906101239190611122565b61069e565b6040516101359190611199565b60405180910390f35b610158600480360381019061015391906111bb565b61074a565b005b610174600480360381019061016f919061122a565b6107d4565b604051610181919061128e565b60405180910390f35b6101a4600480360381019061019f919061122a565b610879565b6040516101b494939291906112b8565b60405180910390f35b6101d760048036038101906101d29190611122565b610954565b6040516101e49190611304565b60405180910390f35b6101f5610978565b60405161020291906113dd565b60405180910390f35b61022560048036038101906102209190611122565b6109d0565b6040516102329190611304565b60405180910390f35b6102436109f4565b604051610250919061147e565b60405180910390f35b610273600480360381019061026e9190611499565b610a1a565b005b61027d610d55565b60405161028a9190611529565b60405180910390f35b61029b610d7b565b6040516102a891906113dd565b60405180910390f35b600560009054906101000a900473ffffffffffffffffffffffffffffffffffffffff1673ffffffffffffffffffffffffffffffffffffffff1663e92ea5b5336040518263ffffffff1660e01b815260040161030c9190611529565b602060405180830381865afa158015610329573d6000803e3d6000fd5b505050506040513d601f19601f8201168201806040525081019061034d9190611570565b806103f05750600560009054906101000a900473ffffffffffffffffffffffffffffffffffffffff1673ffffffffffffffffffffffffffffffffffffffff16632c0e4d0c336040518263ffffffff1660e01b81526004016103ae9190611529565b602060405180830381865afa1580156103cb573d6000803e3d6000fd5b505050506040513d601f19601f820116820180604052508101906103ef9190611570565b5b61042f576040517f08c379a00000000000000000000000000000000000000000000000000000000081526004016104269061160f565b60405180910390fd5b81600681604051610440919061166b565b908152602001604051809103902060009054906101000a900460ff1661049b576040517f08c379a0000000000000000000000000000000000000000000000000000000008152600401610492906116ce565b60405180910390fd5b600082116104de576040517f08c379a00000000000000000000000000000000000000000000000000000000081526004016104d59061173a565b60405180910390fd5b816000846040516104ef919061166b565b90815260200160405180910390206001018190555060005b6001805490508110156105bf5783604051602001610525919061166b565b604051602081830303815290604052805190602001206001828154811061054f5761054e61175a565b5b906000526020600020016040516020016105699190611881565b60405160208183030381529060405280519060200120036105ac5782600282815481106105995761059861175a565b5b90600052602060002001819055506105bf565b80806105b7906118c7565b915050610507565b50505050565b60606001805480602002602001604051908101604052809291908181526020016000905b82821015610695578382906000526020600020018054610608906117b8565b80601f0160208091040260200160405190810160405280929190818152602001828054610634906117b8565b80156106815780601f1061065657610100808354040283529160200191610681565b820191906000526020600020905b81548152906001019060200180831161066457829003601f168201915b5050505050815260200190600101906105e9565b50505050905090565b600181815481106106ae57600080fd5b9060005260206000200160009150905080546106c9906117b8565b80601f01602080910402602001604051908101604052809291908181526020018280546106f5906117b8565b80156107425780601f1061071757610100808354040283529160200191610742565b820191906000526020600020905b81548152906001019060200180831161072557829003601f168201915b505050505081565b826003838154811061075f5761075e61175a565b5b90600052602060002001819055508260008260405161077e919061166b565b908152602001604051809103902060020181905550600083116000826040516107a7919061166b565b908152602001604051809103902060030160006101000a81548160ff021916908315150217905550505050565b6000816006816040516107e7919061166b565b908152602001604051809103902060009054906101000a900460ff16610842576040517f08c379a0000000000000000000000000000000000000000000000000000000008152600401610839906116ce565b60405180910390fd5b600083604051610852919061166b565b908152602001604051809103902060030160009054906101000a900460ff16915050919050565b6000818051602081018201805184825260208301602085012081835280955050505050506000915090508060000180546108b2906117b8565b80601f01602080910402602001604051908101604052809291908181526020018280546108de906117b8565b801561092b5780601f106109005761010080835404028352916020019161092b565b820191906000526020600020905b81548152906001019060200180831161090e57829003601f168201915b5050505050908060010154908060020154908060030160009054906101000a900460ff16905084565b6003818154811061096457600080fd5b906000526020600020016000915090505481565b606060038054806020026020016040519081016040528092919081815260200182805480156109c657602002820191906000526020600020905b8154815260200190600101908083116109b2575b5050505050905090565b600281815481106109e057600080fd5b906000526020600020016000915090505481565b600560009054906101000a900473ffffffffffffffffffffffffffffffffffffffff1681565b600560009054906101000a900473ffffffffffffffffffffffffffffffffffffffff1673ffffffffffffffffffffffffffffffffffffffff1663e92ea5b5336040518263ffffffff1660e01b8152600401610a759190611529565b602060405180830381865afa158015610a92573d6000803e3d6000fd5b505050506040513d601f19601f82011682018060405250810190610ab69190611570565b80610b595750600560009054906101000a900473ffffffffffffffffffffffffffffffffffffffff1673ffffffffffffffffffffffffffffffffffffffff16632c0e4d0c336040518263ffffffff1660e01b8152600401610b179190611529565b602060405180830381865afa158015610b34573d6000803e3d6000fd5b505050506040513d601f19601f82011682018060405250810190610b589190611570565b5b610b98576040517f08c379a0000000000000000000000000000000000000000000000000000000008152600401610b8f9061160f565b60405180910390fd5b60008211610bdb576040517f08c379a0000000000000000000000000000000000000000000000000000000008152600401610bd29061173a565b60405180910390fd5b600183908060018154018082558091505060019003906000526020600020016000909190919091509081610c0f9190611a9c565b506002829080600181540180825580915050600190039060005260206000200160009091909190915055600381908060018154018082558091505060019003906000526020600020016000909190919091505582600084604051610c73919061166b565b90815260200160405180910390206000019081610c909190611a9c565b5081600084604051610ca2919061166b565b90815260200160405180910390206001018190555080600084604051610cc8919061166b565b90815260200160405180910390206002018190555060008111600084604051610cf1919061166b565b908152602001604051809103902060030160006101000a81548160ff0219169083151502179055506001600684604051610d2b919061166b565b908152602001604051809103902060006101000a81548160ff021916908315150217905550505050565b600460009054906101000a900473ffffffffffffffffffffffffffffffffffffffff1681565b60606002805480602002602001604051908101604052809291908181526020018280548015610dc957602002820191906000526020600020905b815481526020019060010190808311610db5575b5050505050905090565b6000604051905090565b600080fd5b600080fd5b600080fd5b600080fd5b6000601f19601f8301169050919050565b7f4e487b7100000000000000000000000000000000000000000000000000000000600052604160045260246000fd5b610e3a82610df1565b810181811067ffffffffffffffff82111715610e5957610e58610e02565b5b80604052505050565b6000610e6c610dd3565b9050610e788282610e31565b919050565b600067ffffffffffffffff821115610e9857610e97610e02565b5b610ea182610df1565b9050602081019050919050565b82818337600083830152505050565b6000610ed0610ecb84610e7d565b610e62565b905082815260208101848484011115610eec57610eeb610dec565b5b610ef7848285610eae565b509392505050565b600082601f830112610f1457610f13610de7565b5b8135610f24848260208601610ebd565b91505092915050565b6000819050919050565b610f4081610f2d565b8114610f4b57600080fd5b50565b600081359050610f5d81610f37565b92915050565b60008060408385031215610f7a57610f79610ddd565b5b600083013567ffffffffffffffff811115610f9857610f97610de2565b5b610fa485828601610eff565b9250506020610fb585828601610f4e565b9150509250929050565b600081519050919050565b600082825260208201905092915050565b6000819050602082019050919050565b600081519050919050565b600082825260208201905092915050565b60005b8381101561102557808201518184015260208101905061100a565b60008484015250505050565b600061103c82610feb565b6110468185610ff6565b9350611056818560208601611007565b61105f81610df1565b840191505092915050565b60006110768383611031565b905092915050565b6000602082019050919050565b600061109682610fbf565b6110a08185610fca565b9350836020820285016110b285610fdb565b8060005b858110156110ee57848403895281516110cf858261106a565b94506110da8361107e565b925060208a019950506001810190506110b6565b50829750879550505050505092915050565b6000602082019050818103600083015261111a818461108b565b905092915050565b60006020828403121561113857611137610ddd565b5b600061114684828501610f4e565b91505092915050565b600082825260208201905092915050565b600061116b82610feb565b611175818561114f565b9350611185818560208601611007565b61118e81610df1565b840191505092915050565b600060208201905081810360008301526111b38184611160565b905092915050565b6000806000606084860312156111d4576111d3610ddd565b5b60006111e286828701610f4e565b93505060206111f386828701610f4e565b925050604084013567ffffffffffffffff81111561121457611213610de2565b5b61122086828701610eff565b9150509250925092565b6000602082840312156112405761123f610ddd565b5b600082013567ffffffffffffffff81111561125e5761125d610de2565b5b61126a84828501610eff565b91505092915050565b60008115159050919050565b61128881611273565b82525050565b60006020820190506112a3600083018461127f565b92915050565b6112b281610f2d565b82525050565b600060808201905081810360008301526112d28187611160565b90506112e160208301866112a9565b6112ee60408301856112a9565b6112fb606083018461127f565b95945050505050565b600060208201905061131960008301846112a9565b92915050565b600081519050919050565b600082825260208201905092915050565b6000819050602082019050919050565b61135481610f2d565b82525050565b6000611366838361134b565b60208301905092915050565b6000602082019050919050565b600061138a8261131f565b611394818561132a565b935061139f8361133b565b8060005b838110156113d05781516113b7888261135a565b97506113c283611372565b9250506001810190506113a3565b5085935050505092915050565b600060208201905081810360008301526113f7818461137f565b905092915050565b600073ffffffffffffffffffffffffffffffffffffffff82169050919050565b6000819050919050565b600061144461143f61143a846113ff565b61141f565b6113ff565b9050919050565b600061145682611429565b9050919050565b60006114688261144b565b9050919050565b6114788161145d565b82525050565b6000602082019050611493600083018461146f565b92915050565b6000806000606084860312156114b2576114b1610ddd565b5b600084013567ffffffffffffffff8111156114d0576114cf610de2565b5b6114dc86828701610eff565b93505060206114ed86828701610f4e565b92505060406114fe86828701610f4e565b9150509250925092565b6000611513826113ff565b9050919050565b61152381611508565b82525050565b600060208201905061153e600083018461151a565b92915050565b61154d81611273565b811461155857600080fd5b50565b60008151905061156a81611544565b92915050565b60006020828403121561158657611585610ddd565b5b60006115948482850161155b565b91505092915050565b7f4f6e6c792063616665207374616666206f722061646d696e2063616e2063616c60008201527f6c20746869732066756e6374696f6e0000000000000000000000000000000000602082015250565b60006115f9602f8361114f565b91506116048261159d565b604082019050919050565b60006020820190508181036000830152611628816115ec565b9050919050565b600081905092915050565b600061164582610feb565b61164f818561162f565b935061165f818560208601611007565b80840191505092915050565b6000611677828461163a565b915081905092915050565b7f4974656d20646f6573206e6f7420657869737400000000000000000000000000600082015250565b60006116b860138361114f565b91506116c382611682565b602082019050919050565b600060208201905081810360008301526116e7816116ab565b9050919050565b7f50726963652063616e6e6f742062652030000000000000000000000000000000600082015250565b600061172460118361114f565b915061172f826116ee565b602082019050919050565b6000602082019050818103600083015261175381611717565b9050919050565b7f4e487b7100000000000000000000000000000000000000000000000000000000600052603260045260246000fd5b7f4e487b7100000000000000000000000000000000000000000000000000000000600052602260045260246000fd5b600060028204905060018216806117d057607f821691505b6020821081036117e3576117e2611789565b5b50919050565b60008190508160005260206000209050919050565b6000815461180b816117b8565b611815818661162f565b94506001821660008114611830576001811461184557611878565b60ff1983168652811515820286019350611878565b61184e856117e9565b60005b8381101561187057815481890152600182019150602081019050611851565b838801955050505b50505092915050565b600061188d82846117fe565b915081905092915050565b7f4e487b7100000000000000000000000000000000000000000000000000000000600052601160045260246000fd5b60006118d282610f2d565b91507fffffffffffffffffffffffffffffffffffffffffffffffffffffffffffffffff820361190457611903611898565b5b600182019050919050565b60006020601f8301049050919050565b600082821b905092915050565b60006008830261195c7fffffffffffffffffffffffffffffffffffffffffffffffffffffffffffffffff8261191f565b611966868361191f565b95508019841693508086168417925050509392505050565b600061199961199461198f84610f2d565b61141f565b610f2d565b9050919050565b6000819050919050565b6119b38361197e565b6119c76119bf826119a0565b84845461192c565b825550505050565b600090565b6119dc6119cf565b6119e78184846119aa565b505050565b5b81811015611a0b57611a006000826119d4565b6001810190506119ed565b5050565b601f821115611a5057611a21816117e9565b611a2a8461190f565b81016020851015611a39578190505b611a4d611a458561190f565b8301826119ec565b50505b505050565b600082821c905092915050565b6000611a7360001984600802611a55565b1980831691505092915050565b6000611a8c8383611a62565b9150826002028217905092915050565b611aa582610feb565b67ffffffffffffffff811115611abe57611abd610e02565b5b611ac882546117b8565b611ad3828285611a0f565b600060209050601f831160018114611b065760008415611af4578287015190505b611afe8582611a80565b865550611b66565b601f198416611b14866117e9565b60005b82811015611b3c57848901518255600182019150602085019450602081019050611b17565b86831015611b595784890151611b55601f891682611a62565b8355505b6001600288020188555050505b50505050505056fea2646970667358221220ebd1b4d292b83ead4b35cad87e648e5c58e08b55dae4f693c3823f92c97cfb5a64736f6c63430008130033",
  "immutableReferences": {},
  "source": "//SPDX-License-Identifier:MIT\r\npragma solidity >=0.8.10 <0.8.20;\r\nimport \"./AccessControl.sol\";\r\ncontract menuManagement{\r\n    struct Item {\r\n        string name;\r\n        uint price; \r\n        uint quantity; \r\n        bool availability;\r\n    }\r\n    mapping (string => Item)public itms;\r\n    string [] public names;\r\n    uint [] public prices;\r\n    uint [] public quantities;\r\n    address public admin;\r\n    AccessControl public AC;\r\n    constructor(address _accesscontroladdr){\r\n        admin = msg.sender;\r\n        AC = AccessControl(_accesscontroladdr);\r\n    }\r\n\r\n    mapping(string => bool) itemExists;\r\n\r\n    modifier exists(string memory name) {\r\n        require(itemExists[name], \"Item does not exist\");\r\n        _;\r\n    }\r\n\r\n    modifier onlyCafeStaffOrAdmin() {\r\n        require(AC.isCafeStaff(msg.sender) || AC.isCafeAdmin(msg.sender), \"Only cafe staff or admin can call this function\");\r\n        _;\r\n    }\r\n\r\n    function addItem(string memory name , uint price, uint qty) onlyCafeStaffOrAdmin public {\r\n        require(price > 0, \"Price cannot be 0\");\r\n        names.push(name);\r\n        prices.push(price);\r\n        quantities.push(qty);\r\n        itms[name].name=name;\r\n        itms[name].price=price;\r\n        itms[name].quantity=qty;\r\n        itms[name].availability=qty > 0;\r\n        itemExists[name] = true;\r\n    }\r\n\r\n    function getItemNames() external view returns (string [] memory){\r\n        return names;\r\n    }\r\n\r\n    function setQuantity(uint qty , uint i , string memory name) external{\r\n        quantities[i]=qty;\r\n        itms[name].quantity = qty;\r\n        itms[name].availability = qty > 0;\r\n    }\r\n\r\n    function UpdatePrice(string memory name, uint price) public onlyCafeStaffOrAdmin exists(name) {\r\n        require(price > 0, \"Price cannot be 0\");\r\n        itms[name].price=price;\r\n        for (uint i = 0 ; i < names.length ; i++){\r\n            if (keccak256(abi.encodePacked(names[i]))==keccak256(abi.encodePacked(name))){\r\n                prices[i]=price;\r\n                break;\r\n            }\r\n        }\r\n    }\r\n\r\n    function CheckAvailability(string memory name) exists(name) public view returns (bool) {\r\n        return itms[name].availability;\r\n    }\r\n\r\n    function getMenuPrice() public view returns(uint [] memory){\r\n        return prices;\r\n    }\r\n\r\n    function getMenuQuantity() public view returns(uint [] memory){\r\n        /*uint [] memory qty1 = new uint[](1000);\r\n        for (uint i = 0 ; i < names.length ; i++){ \r\n            qty1[i] = itms[names[i]].quantity; \r\n        }*/\r\n        return quantities;\r\n    }\r\n}",
  "sourcePath": "C:\\Users\\Zaing\\Documents\\BlockchainWork\\Project2\\contracts\\menuManagement.sol",
  "compiler": {
    "name": "solc",
    "version": "0.8.19+commit.7dd6d404.Emscripten.clang"
  },
  "schemaVersion": "3.4.16",
  "updatedAt": "2024-01-06T10:07:14.333Z",
  "networkType": "ethereum",
  "devdoc": {
    "kind": "dev",
    "methods": {},
    "version": 1
  },
  "userdoc": {
    "kind": "user",
    "methods": {},
    "version": 1
  }
}