{
  "contractName": "OrderProcessingContract",
  "abi": [
    {
      "inputs": [
        {
          "internalType": "address",
          "name": "_addrmenu",
          "type": "address"
        },
        {
          "internalType": "address",
          "name": "_addrdiscandpro",
          "type": "address"
        },
        {
          "internalType": "address",
          "name": "_addraccesscontrol",
          "type": "address"
        }
      ],
      "stateMutability": "nonpayable",
      "type": "constructor"
    },
    {
      "inputs": [],
      "name": "AC",
      "outputs": [
        {
          "internalType": "contract AccessControl",
          "name": "",
          "type": "address"
        }
      ],
      "stateMutability": "view",
      "type": "function",
      "constant": true
    },
    {
      "inputs": [],
      "name": "discAPro",
      "outputs": [
        {
          "internalType": "contract discountsAndPromotions",
          "name": "",
          "type": "address"
        }
      ],
      "stateMutability": "view",
      "type": "function",
      "constant": true
    },
    {
      "inputs": [],
      "name": "mn",
      "outputs": [
        {
          "internalType": "contract menuManagement",
          "name": "",
          "type": "address"
        }
      ],
      "stateMutability": "view",
      "type": "function",
      "constant": true
    },
    {
      "inputs": [],
      "name": "CheckinAvailability",
      "outputs": [
        {
          "internalType": "bool",
          "name": "",
          "type": "bool"
        }
      ],
      "stateMutability": "view",
      "type": "function",
      "constant": true
    },
    {
      "inputs": [],
      "name": "getMenuItems",
      "outputs": [
        {
          "internalType": "string[]",
          "name": "",
          "type": "string[]"
        },
        {
          "internalType": "uint256[]",
          "name": "",
          "type": "uint256[]"
        },
        {
          "internalType": "uint256[]",
          "name": "",
          "type": "uint256[]"
        }
      ],
      "stateMutability": "view",
      "type": "function",
      "constant": true
    },
    {
      "inputs": [
        {
          "internalType": "string[]",
          "name": "itemnames",
          "type": "string[]"
        },
        {
          "internalType": "uint256[]",
          "name": "quantities",
          "type": "uint256[]"
        }
      ],
      "name": "CalculateOrderAmount",
      "outputs": [
        {
          "internalType": "uint256",
          "name": "",
          "type": "uint256"
        }
      ],
      "stateMutability": "nonpayable",
      "type": "function"
    }
  ],
  "bytecode": "0x60806040523480156200001157600080fd5b5060405162001a9338038062001a9383398181016040528101906200003791906200016c565b826000806101000a81548173ffffffffffffffffffffffffffffffffffffffff021916908373ffffffffffffffffffffffffffffffffffffffff16021790555081600160006101000a81548173ffffffffffffffffffffffffffffffffffffffff021916908373ffffffffffffffffffffffffffffffffffffffff16021790555080600260006101000a81548173ffffffffffffffffffffffffffffffffffffffff021916908373ffffffffffffffffffffffffffffffffffffffff160217905550505050620001c8565b600080fd5b600073ffffffffffffffffffffffffffffffffffffffff82169050919050565b6000620001348262000107565b9050919050565b620001468162000127565b81146200015257600080fd5b50565b60008151905062000166816200013b565b92915050565b60008060006060848603121562000188576200018762000102565b5b6000620001988682870162000155565b9350506020620001ab8682870162000155565b9250506040620001be8682870162000155565b9150509250925092565b6118bb80620001d86000396000f3fe608060405234801561001057600080fd5b50600436106100625760003560e01c8063a940f7d214610067578063bb93d0fd14610085578063bcf0196b146100a3578063c2e0a80d146100c1578063d630a1e6146100e1578063ffc841bd14610111575b600080fd5b61006f61012f565b60405161007c9190610b2a565b60405180910390f35b61008d610155565b60405161009a9190610b60565b60405180910390f35b6100ab6101f5565b6040516100b89190610b9c565b60405180910390f35b6100c961021b565b6040516100d893929190610dd1565b60405180910390f35b6100fb60048036038101906100f6919061113b565b6103fc565b60405161010891906111c2565b60405180910390f35b610119610a87565b60405161012691906111fe565b60405180910390f35b600160009054906101000a900473ffffffffffffffffffffffffffffffffffffffff1681565b60008060009054906101000a900473ffffffffffffffffffffffffffffffffffffffff1673ffffffffffffffffffffffffffffffffffffffff1663825bbdac6040518163ffffffff1660e01b81526004016101af90611276565b602060405180830381865afa1580156101cc573d6000803e3d6000fd5b505050506040513d601f19601f820116820180604052508101906101f091906112c2565b905090565b600260009054906101000a900473ffffffffffffffffffffffffffffffffffffffff1681565b606080606060008060009054906101000a900473ffffffffffffffffffffffffffffffffffffffff1673ffffffffffffffffffffffffffffffffffffffff166313bc85106040518163ffffffff1660e01b8152600401600060405180830381865afa15801561028e573d6000803e3d6000fd5b505050506040513d6000823e3d601f19601f820116820180604052508101906102b79190611414565b905060008060009054906101000a900473ffffffffffffffffffffffffffffffffffffffff1673ffffffffffffffffffffffffffffffffffffffff1663fb5e33b76040518163ffffffff1660e01b8152600401600060405180830381865afa158015610327573d6000803e3d6000fd5b505050506040513d6000823e3d601f19601f820116820180604052508101906103509190611509565b905060008060009054906101000a900473ffffffffffffffffffffffffffffffffffffffff1673ffffffffffffffffffffffffffffffffffffffff1663b37809716040518163ffffffff1660e01b8152600401600060405180830381865afa1580156103c0573d6000803e3d6000fd5b505050506040513d6000823e3d601f19601f820116820180604052508101906103e99190611509565b9050828282955095509550505050909192565b60008060008060009054906101000a900473ffffffffffffffffffffffffffffffffffffffff1673ffffffffffffffffffffffffffffffffffffffff166313bc85106040518163ffffffff1660e01b8152600401600060405180830381865afa15801561046d573d6000803e3d6000fd5b505050506040513d6000823e3d601f19601f820116820180604052508101906104969190611414565b905060008060009054906101000a900473ffffffffffffffffffffffffffffffffffffffff1673ffffffffffffffffffffffffffffffffffffffff1663fb5e33b76040518163ffffffff1660e01b8152600401600060405180830381865afa158015610506573d6000803e3d6000fd5b505050506040513d6000823e3d601f19601f8201168201806040525081019061052f9190611509565b905060008060009054906101000a900473ffffffffffffffffffffffffffffffffffffffff1673ffffffffffffffffffffffffffffffffffffffff1663b37809716040518163ffffffff1660e01b8152600401600060405180830381865afa15801561059f573d6000803e3d6000fd5b505050506040513d6000823e3d601f19601f820116820180604052508101906105c89190611509565b90506000805b8451811015610a78578882815181106105ea576105e9611552565b5b602002602001015160405160200161060291906115bd565b6040516020818303038152906040528051906020012085828151811061062b5761062a611552565b5b602002602001015160405160200161064391906115bd565b6040516020818303038152906040528051906020012003610a65576060600080600080600160009054906101000a900473ffffffffffffffffffffffffffffffffffffffff1673ffffffffffffffffffffffffffffffffffffffff16639a3a8d108b88815181106106b7576106b6611552565b5b60200260200101516040518263ffffffff1660e01b81526004016106db919061160d565b600060405180830381865afa1580156106f8573d6000803e3d6000fd5b505050506040513d6000823e3d601f19601f82011682018060405250810190610721919061162f565b8095508196508297508398508499505050505050600184036108fb5760008054906101000a900473ffffffffffffffffffffffffffffffffffffffff1673ffffffffffffffffffffffffffffffffffffffff16635f4104fb848f8a8151811061078d5761078c611552565b5b602002602001015161079f9190611724565b8f8a815181106107b2576107b1611552565b5b60200260200101518b8a815181106107cd576107cc611552565b5b60200260200101516107df9190611755565b6107e99190611755565b888d8a815181106107fd576107fc611552565b5b60200260200101516040518463ffffffff1660e01b815260040161082393929190611789565b600060405180830381600087803b15801561083d57600080fd5b505af1158015610851573d6000803e3d6000fd5b50505050828d888151811061086957610868611552565b5b602002602001015161087b9190611724565b8d888151811061088e5761088d611552565b5b602002602001018181516108a291906117c7565b915081815250508886815181106108bc576108bb611552565b5b60200260200101518d88815181106108d7576108d6611552565b5b60200260200101516108e991906117fb565b8b6108f491906117c7565b9a50610a51565b60028403610a505760008054906101000a900473ffffffffffffffffffffffffffffffffffffffff1673ffffffffffffffffffffffffffffffffffffffff16635f4104fb8e898151811061095257610951611552565b5b60200260200101518a898151811061096d5761096c611552565b5b602002602001015161097f9190611755565b888d8a8151811061099357610992611552565b5b60200260200101516040518463ffffffff1660e01b81526004016109b993929190611789565b600060405180830381600087803b1580156109d357600080fd5b505af11580156109e7573d6000803e3d6000fd5b505050508886815181106109fe576109fd611552565b5b6020026020010151606483610a139190611724565b610a1d91906117fb565b8d8881518110610a3057610a2f611552565b5b6020026020010151610a4291906117fb565b8b610a4d91906117c7565b9a505b5b8680610a5c9061183d565b97505050505050505b8080610a709061183d565b9150506105ce565b50849550505050505092915050565b60008054906101000a900473ffffffffffffffffffffffffffffffffffffffff1681565b600073ffffffffffffffffffffffffffffffffffffffff82169050919050565b6000819050919050565b6000610af0610aeb610ae684610aab565b610acb565b610aab565b9050919050565b6000610b0282610ad5565b9050919050565b6000610b1482610af7565b9050919050565b610b2481610b09565b82525050565b6000602082019050610b3f6000830184610b1b565b92915050565b60008115159050919050565b610b5a81610b45565b82525050565b6000602082019050610b756000830184610b51565b92915050565b6000610b8682610af7565b9050919050565b610b9681610b7b565b82525050565b6000602082019050610bb16000830184610b8d565b92915050565b600081519050919050565b600082825260208201905092915050565b6000819050602082019050919050565b600081519050919050565b600082825260208201905092915050565b60005b83811015610c1d578082015181840152602081019050610c02565b60008484015250505050565b6000601f19601f8301169050919050565b6000610c4582610be3565b610c4f8185610bee565b9350610c5f818560208601610bff565b610c6881610c29565b840191505092915050565b6000610c7f8383610c3a565b905092915050565b6000602082019050919050565b6000610c9f82610bb7565b610ca98185610bc2565b935083602082028501610cbb85610bd3565b8060005b85811015610cf75784840389528151610cd88582610c73565b9450610ce383610c87565b925060208a01995050600181019050610cbf565b50829750879550505050505092915050565b600081519050919050565b600082825260208201905092915050565b6000819050602082019050919050565b6000819050919050565b610d4881610d35565b82525050565b6000610d5a8383610d3f565b60208301905092915050565b6000602082019050919050565b6000610d7e82610d09565b610d888185610d14565b9350610d9383610d25565b8060005b83811015610dc4578151610dab8882610d4e565b9750610db683610d66565b925050600181019050610d97565b5085935050505092915050565b60006060820190508181036000830152610deb8186610c94565b90508181036020830152610dff8185610d73565b90508181036040830152610e138184610d73565b9050949350505050565b6000604051905090565b600080fd5b600080fd5b600080fd5b7f4e487b7100000000000000000000000000000000000000000000000000000000600052604160045260246000fd5b610e6e82610c29565b810181811067ffffffffffffffff82111715610e8d57610e8c610e36565b5b80604052505050565b6000610ea0610e1d565b9050610eac8282610e65565b919050565b600067ffffffffffffffff821115610ecc57610ecb610e36565b5b602082029050602081019050919050565b600080fd5b600080fd5b600067ffffffffffffffff821115610f0257610f01610e36565b5b610f0b82610c29565b9050602081019050919050565b82818337600083830152505050565b6000610f3a610f3584610ee7565b610e96565b905082815260208101848484011115610f5657610f55610ee2565b5b610f61848285610f18565b509392505050565b600082601f830112610f7e57610f7d610e31565b5b8135610f8e848260208601610f27565b91505092915050565b6000610faa610fa584610eb1565b610e96565b90508083825260208201905060208402830185811115610fcd57610fcc610edd565b5b835b8181101561101457803567ffffffffffffffff811115610ff257610ff1610e31565b5b808601610fff8982610f69565b85526020850194505050602081019050610fcf565b5050509392505050565b600082601f83011261103357611032610e31565b5b8135611043848260208601610f97565b91505092915050565b600067ffffffffffffffff82111561106757611066610e36565b5b602082029050602081019050919050565b61108181610d35565b811461108c57600080fd5b50565b60008135905061109e81611078565b92915050565b60006110b76110b28461104c565b610e96565b905080838252602082019050602084028301858111156110da576110d9610edd565b5b835b8181101561110357806110ef888261108f565b8452602084019350506020810190506110dc565b5050509392505050565b600082601f83011261112257611121610e31565b5b81356111328482602086016110a4565b91505092915050565b6000806040838503121561115257611151610e27565b5b600083013567ffffffffffffffff8111156111705761116f610e2c565b5b61117c8582860161101e565b925050602083013567ffffffffffffffff81111561119d5761119c610e2c565b5b6111a98582860161110d565b9150509250929050565b6111bc81610d35565b82525050565b60006020820190506111d760008301846111b3565b92915050565b60006111e882610af7565b9050919050565b6111f8816111dd565b82525050565b600060208201905061121360008301846111ef565b92915050565b600082825260208201905092915050565b7f50697a7a61000000000000000000000000000000000000000000000000000000600082015250565b6000611260600583611219565b915061126b8261122a565b602082019050919050565b6000602082019050818103600083015261128f81611253565b9050919050565b61129f81610b45565b81146112aa57600080fd5b50565b6000815190506112bc81611296565b92915050565b6000602082840312156112d8576112d7610e27565b5b60006112e6848285016112ad565b91505092915050565b60006113026112fd84610ee7565b610e96565b90508281526020810184848401111561131e5761131d610ee2565b5b611329848285610bff565b509392505050565b600082601f83011261134657611345610e31565b5b81516113568482602086016112ef565b91505092915050565b600061137261136d84610eb1565b610e96565b9050808382526020820190506020840283018581111561139557611394610edd565b5b835b818110156113dc57805167ffffffffffffffff8111156113ba576113b9610e31565b5b8086016113c78982611331565b85526020850194505050602081019050611397565b5050509392505050565b600082601f8301126113fb576113fa610e31565b5b815161140b84826020860161135f565b91505092915050565b60006020828403121561142a57611429610e27565b5b600082015167ffffffffffffffff81111561144857611447610e2c565b5b611454848285016113e6565b91505092915050565b60008151905061146c81611078565b92915050565b60006114856114808461104c565b610e96565b905080838252602082019050602084028301858111156114a8576114a7610edd565b5b835b818110156114d157806114bd888261145d565b8452602084019350506020810190506114aa565b5050509392505050565b600082601f8301126114f0576114ef610e31565b5b8151611500848260208601611472565b91505092915050565b60006020828403121561151f5761151e610e27565b5b600082015167ffffffffffffffff81111561153d5761153c610e2c565b5b611549848285016114db565b91505092915050565b7f4e487b7100000000000000000000000000000000000000000000000000000000600052603260045260246000fd5b600081905092915050565b600061159782610be3565b6115a18185611581565b93506115b1818560208601610bff565b80840191505092915050565b60006115c9828461158c565b915081905092915050565b60006115df82610be3565b6115e98185611219565b93506115f9818560208601610bff565b61160281610c29565b840191505092915050565b6000602082019050818103600083015261162781846115d4565b905092915050565b600080600080600060a0868803121561164b5761164a610e27565b5b600086015167ffffffffffffffff81111561166957611668610e2c565b5b61167588828901611331565b95505060206116868882890161145d565b94505060406116978882890161145d565b93505060606116a88882890161145d565b92505060806116b98882890161145d565b9150509295509295909350565b7f4e487b7100000000000000000000000000000000000000000000000000000000600052601260045260246000fd5b7f4e487b7100000000000000000000000000000000000000000000000000000000600052601160045260246000fd5b600061172f82610d35565b915061173a83610d35565b92508261174a576117496116c6565b5b828204905092915050565b600061176082610d35565b915061176b83610d35565b9250828203905081811115611783576117826116f5565b5b92915050565b600060608201905061179e60008301866111b3565b6117ab60208301856111b3565b81810360408301526117bd81846115d4565b9050949350505050565b60006117d282610d35565b91506117dd83610d35565b92508282019050808211156117f5576117f46116f5565b5b92915050565b600061180682610d35565b915061181183610d35565b925082820261181f81610d35565b91508282048414831517611836576118356116f5565b5b5092915050565b600061184882610d35565b91507fffffffffffffffffffffffffffffffffffffffffffffffffffffffffffffffff820361187a576118796116f5565b5b60018201905091905056fea2646970667358221220a905f4a59c621669c42ec65dadb90ede9aebe3954499ce25e2e0aa6738286e2064736f6c63430008130033",
  "immutableReferences": {},
  "source": "//SPDX-License-Identifier:MIT\r\npragma solidity >=0.8.10 <0.8.20;\r\nimport \"./menuManagement.sol\";\r\nimport \"./discountsAndPromotions.sol\";\r\nimport \"./AccessControl.sol\";\r\ncontract OrderProcessingContract{\r\n    menuManagement public mn;\r\n    discountsAndPromotions public discAPro;\r\n    AccessControl public AC;\r\n    constructor(address _addrmenu , address _addrdiscandpro , address _addraccesscontrol){\r\n        mn=menuManagement(_addrmenu);\r\n        discAPro=discountsAndPromotions(_addrdiscandpro);\r\n        AC = AccessControl(_addraccesscontrol);\r\n    }\r\n\r\n    function CheckinAvailability()public view returns(bool){\r\n        return mn.CheckAvailability(\"Pizza\");\r\n    }\r\n\r\n    function getMenuItems() public view returns(string [] memory , uint [] memory, uint [] memory){\r\n        string [] memory names = mn.getItemNames();\r\n        uint [] memory price = mn.getMenuPrice();\r\n        uint [] memory quantity = mn.getMenuQuantity();\r\n        return (names , price , quantity);\r\n    }\r\n\r\n    function CalculateOrderAmount(string [] memory itemnames , uint [] memory quantities) external returns(uint /*, string [] memory ,uint [] memory*/){\r\n        uint totalAmount;\r\n        string [] memory names = mn.getItemNames();\r\n        uint [] memory price = mn.getMenuPrice();\r\n        uint [] memory quantity = mn.getMenuQuantity();\r\n        uint j = 0;\r\n        for (uint i = 0 ; i < names.length ; i++){\r\n            if (keccak256(abi.encodePacked(names[i])) == keccak256(abi.encodePacked(itemnames[j]))) {\r\n                    string memory nm;\r\n                    uint typs; uint qt ; uint prcper ; uint dur;\r\n                    (nm , typs , qt , prcper , dur) = discAPro.PromotionsandDiscounts(names[i]);\r\n                    if (typs == 1){\r\n                        mn.setQuantity(quantity[i] - quantities[j] - quantities[j]/qt , i , names[i]);\r\n                        quantities[j]+=(quantities[j]/qt);\r\n                        totalAmount += quantities[j] * price[i];\r\n                    } else if (typs == 2) {\r\n                        mn.setQuantity(quantity[i] - quantities[j] , i , names[i]);\r\n                        totalAmount += quantities[j] * (prcper / 100 * price[i]);\r\n                    }\r\n                    j++;\r\n            }\r\n        }\r\n        return totalAmount /*, itemnames , quantities)*/ ;\r\n    }\r\n}",
  "sourcePath": "C:\\Users\\Zaing\\Documents\\BlockchainWork\\Project2\\contracts\\OrderProcessingContract.sol",
  "compiler": {
    "name": "solc",
    "version": "0.8.19+commit.7dd6d404.Emscripten.clang"
  },
  "schemaVersion": "3.4.16",
  "updatedAt": "2024-01-06T10:07:14.325Z",
  "networkType": "ethereum",
  "devdoc": {
    "kind": "dev",
    "methods": {},
    "version": 1
  },
  "userdoc": {
    "kind": "user",
    "methods": {},
    "version": 1
  }
}